{
  "data": {
    "bytecode": {
      "linkReferences": {},
      "object": "60806040523480156200001157600080fd5b506040518060400160405280600881526020017f44417070204e46540000000000000000000000000000000000000000000000008152506040518060400160405280600481526020017f444150500000000000000000000000000000000000000000000000000000000081525081600090816200008f919062000324565b508060019081620000a1919062000324565b5050506200040b565b600081519050919050565b7f4e487b7100000000000000000000000000000000000000000000000000000000600052604160045260246000fd5b7f4e487b7100000000000000000000000000000000000000000000000000000000600052602260045260246000fd5b600060028204905060018216806200012c57607f821691505b602082108103620001425762000141620000e4565b5b50919050565b60008190508160005260206000209050919050565b60006020601f8301049050919050565b600082821b905092915050565b600060088302620001ac7fffffffffffffffffffffffffffffffffffffffffffffffffffffffffffffffff826200016d565b620001b886836200016d565b95508019841693508086168417925050509392505050565b6000819050919050565b6000819050919050565b600062000205620001ff620001f984620001d0565b620001da565b620001d0565b9050919050565b6000819050919050565b6200022183620001e4565b6200023962000230826200020c565b8484546200017a565b825550505050565b600090565b6200025062000241565b6200025d81848462000216565b505050565b5b8181101562000285576200027960008262000246565b60018101905062000263565b5050565b601f821115620002d4576200029e8162000148565b620002a9846200015d565b81016020851015620002b9578190505b620002d1620002c8856200015d565b83018262000262565b50505b505050565b600082821c905092915050565b6000620002f960001984600802620002d9565b1980831691505092915050565b6000620003148383620002e6565b9150826002028217905092915050565b6200032f82620000aa565b67ffffffffffffffff8111156200034b576200034a620000b5565b5b62000357825462000113565b6200036482828562000289565b600060209050601f8311600181146200039c576000841562000387578287015190505b62000393858262000306565b86555062000403565b601f198416620003ac8662000148565b60005b82811015620003d657848901518255600182019150602085019450602081019050620003af565b86831015620003f65784890151620003f2601f891682620002e6565b8355505b6001600288020188555050505b505050505050565b612aac806200041b6000396000f3fe608060405234801561001057600080fd5b50600436106100f55760003560e01c806370a0823111610097578063b88d4fde11610066578063b88d4fde14610284578063c87b56dd146102a0578063d85d3d27146102d0578063e985e9c514610300576100f5565b806370a08231146101fc57806395d89b411461022c5780639f181b5e1461024a578063a22cb46514610268576100f5565b8063095ea7b3116100d3578063095ea7b31461017857806323b872dd1461019457806342842e0e146101b05780636352211e146101cc576100f5565b806301ffc9a7146100fa57806306fdde031461012a578063081812fc14610148575b600080fd5b610114600480360381019061010f919061183e565b610330565b6040516101219190611886565b60405180910390f35b610132610412565b60405161013f9190611931565b60405180910390f35b610162600480360381019061015d9190611989565b6104a4565b60405161016f91906119f7565b60405180910390f35b610192600480360381019061018d9190611a3e565b6104ea565b005b6101ae60048036038101906101a99190611a7e565b610601565b005b6101ca60048036038101906101c59190611a7e565b610661565b005b6101e660048036038101906101e19190611989565b610681565b6040516101f391906119f7565b60405180910390f35b61021660048036038101906102119190611ad1565b610732565b6040516102239190611b0d565b60405180910390f35b6102346107e9565b6040516102419190611931565b60405180910390f35b61025261087b565b60405161025f9190611b0d565b60405180910390f35b610282600480360381019061027d9190611b54565b610881565b005b61029e60048036038101906102999190611cc9565b610897565b005b6102ba60048036038101906102b59190611989565b6108f9565b6040516102c79190611931565b60405180910390f35b6102ea60048036038101906102e59190611ded565b610a0b565b6040516102f79190611b0d565b60405180910390f35b61031a60048036038101906103159190611e36565b610a47565b6040516103279190611886565b60405180910390f35b60007f80ac58cd000000000000000000000000000000000000000000000000000000007bffffffffffffffffffffffffffffffffffffffffffffffffffffffff1916827bffffffffffffffffffffffffffffffffffffffffffffffffffffffff191614806103fb57507f5b5e139f000000000000000000000000000000000000000000000000000000007bffffffffffffffffffffffffffffffffffffffffffffffffffffffff1916827bffffffffffffffffffffffffffffffffffffffffffffffffffffffff1916145b8061040b575061040a82610adb565b5b9050919050565b60606000805461042190611ea5565b80601f016020809104026020016040519081016040528092919081815260200182805461044d90611ea5565b801561049a5780601f1061046f5761010080835404028352916020019161049a565b820191906000526020600020905b81548152906001019060200180831161047d57829003601f168201915b5050505050905090565b60006104af82610b45565b6004600083815260200190815260200160002060009054906101000a900473ffffffffffffffffffffffffffffffffffffffff169050919050565b60006104f582610681565b90508073ffffffffffffffffffffffffffffffffffffffff168373ffffffffffffffffffffffffffffffffffffffff1603610565576040517f08c379a000000000000000000000000000000000000000000000000000000000815260040161055c90611f48565b60405180910390fd5b8073ffffffffffffffffffffffffffffffffffffffff16610584610b90565b73ffffffffffffffffffffffffffffffffffffffff1614806105b357506105b2816105ad610b90565b610a47565b5b6105f2576040517f08c379a00000000000000000000000000000000000000000000000000000000081526004016105e990611fda565b60405180910390fd5b6105fc8383610b98565b505050565b61061261060c610b90565b82610c51565b610651576040517f08c379a00000000000000000000000000000000000000000000000000000000081526004016106489061206c565b60405180910390fd5b61065c838383610ce6565b505050565b61067c83838360405180602001604052806000815250610897565b505050565b6000806002600084815260200190815260200160002060009054906101000a900473ffffffffffffffffffffffffffffffffffffffff169050600073ffffffffffffffffffffffffffffffffffffffff168173ffffffffffffffffffffffffffffffffffffffff1603610729576040517f08c379a0000000000000000000000000000000000000000000000000000000008152600401610720906120d8565b60405180910390fd5b80915050919050565b60008073ffffffffffffffffffffffffffffffffffffffff168273ffffffffffffffffffffffffffffffffffffffff16036107a2576040517f08c379a00000000000000000000000000000000000000000000000000000000081526004016107999061216a565b60405180910390fd5b600360008373ffffffffffffffffffffffffffffffffffffffff1673ffffffffffffffffffffffffffffffffffffffff168152602001908152602001600020549050919050565b6060600180546107f890611ea5565b80601f016020809104026020016040519081016040528092919081815260200182805461082490611ea5565b80156108715780601f1061084657610100808354040283529160200191610871565b820191906000526020600020905b81548152906001019060200180831161085457829003601f168201915b5050505050905090565b60075481565b61089361088c610b90565b8383610f4c565b5050565b6108a86108a2610b90565b83610c51565b6108e7576040517f08c379a00000000000000000000000000000000000000000000000000000000081526004016108de9061206c565b60405180910390fd5b6108f3848484846110b8565b50505050565b606061090482610b45565b600060066000848152602001908152602001600020805461092490611ea5565b80601f016020809104026020016040519081016040528092919081815260200182805461095090611ea5565b801561099d5780601f106109725761010080835404028352916020019161099d565b820191906000526020600020905b81548152906001019060200180831161098057829003601f168201915b5050505050905060006109ae611114565b905060008151036109c3578192505050610a06565b6000825111156109f85780826040516020016109e09291906121c6565b60405160208183030381529060405292505050610a06565b610a018461112b565b925050505b919050565b600060076000815480929190610a2090612219565b9190505550610a3133600754611193565b610a3d600754836111b1565b6007549050919050565b6000600560008473ffffffffffffffffffffffffffffffffffffffff1673ffffffffffffffffffffffffffffffffffffffff16815260200190815260200160002060008373ffffffffffffffffffffffffffffffffffffffff1673ffffffffffffffffffffffffffffffffffffffff16815260200190815260200160002060009054906101000a900460ff16905092915050565b60007f01ffc9a7000000000000000000000000000000000000000000000000000000007bffffffffffffffffffffffffffffffffffffffffffffffffffffffff1916827bffffffffffffffffffffffffffffffffffffffffffffffffffffffff1916149050919050565b610b4e8161121e565b610b8d576040517f08c379a0000000000000000000000000000000000000000000000000000000008152600401610b84906120d8565b60405180910390fd5b50565b600033905090565b816004600083815260200190815260200160002060006101000a81548173ffffffffffffffffffffffffffffffffffffffff021916908373ffffffffffffffffffffffffffffffffffffffff160217905550808273ffffffffffffffffffffffffffffffffffffffff16610c0b83610681565b73ffffffffffffffffffffffffffffffffffffffff167f8c5be1e5ebec7d5bd14f71427d1e84f3dd0314c0f7b2291e5b200ac8c7c3b92560405160405180910390a45050565b600080610c5d83610681565b90508073ffffffffffffffffffffffffffffffffffffffff168473ffffffffffffffffffffffffffffffffffffffff161480610c9f5750610c9e8185610a47565b5b80610cdd57508373ffffffffffffffffffffffffffffffffffffffff16610cc5846104a4565b73ffffffffffffffffffffffffffffffffffffffff16145b91505092915050565b8273ffffffffffffffffffffffffffffffffffffffff16610d0682610681565b73ffffffffffffffffffffffffffffffffffffffff1614610d5c576040517f08c379a0000000000000000000000000000000000000000000000000000000008152600401610d53906122d3565b60405180910390fd5b600073ffffffffffffffffffffffffffffffffffffffff168273ffffffffffffffffffffffffffffffffffffffff1603610dcb576040517f08c379a0000000000000000000000000000000000000000000000000000000008152600401610dc290612365565b60405180910390fd5b610dd683838361128a565b610de1600082610b98565b6001600360008573ffffffffffffffffffffffffffffffffffffffff1673ffffffffffffffffffffffffffffffffffffffff1681526020019081526020016000206000828254610e319190612385565b925050819055506001600360008473ffffffffffffffffffffffffffffffffffffffff1673ffffffffffffffffffffffffffffffffffffffff1681526020019081526020016000206000828254610e8891906123b9565b92505081905550816002600083815260200190815260200160002060006101000a81548173ffffffffffffffffffffffffffffffffffffffff021916908373ffffffffffffffffffffffffffffffffffffffff160217905550808273ffffffffffffffffffffffffffffffffffffffff168473ffffffffffffffffffffffffffffffffffffffff167fddf252ad1be2c89b69c2b068fc378daa952ba7f163c4a11628f55a4df523b3ef60405160405180910390a4610f4783838361128f565b505050565b8173ffffffffffffffffffffffffffffffffffffffff168373ffffffffffffffffffffffffffffffffffffffff1603610fba576040517f08c379a0000000000000000000000000000000000000000000000000000000008152600401610fb190612439565b60405180910390fd5b80600560008573ffffffffffffffffffffffffffffffffffffffff1673ffffffffffffffffffffffffffffffffffffffff16815260200190815260200160002060008473ffffffffffffffffffffffffffffffffffffffff1673ffffffffffffffffffffffffffffffffffffffff16815260200190815260200160002060006101000a81548160ff0219169083151502179055508173ffffffffffffffffffffffffffffffffffffffff168373ffffffffffffffffffffffffffffffffffffffff167f17307eab39ab6107e8899845ad3d59bd9653f200f220920489ca2b5937696c31836040516110ab9190611886565b60405180910390a3505050565b6110c3848484610ce6565b6110cf84848484611294565b61110e576040517f08c379a0000000000000000000000000000000000000000000000000000000008152600401611105906124cb565b60405180910390fd5b50505050565b606060405180602001604052806000815250905090565b606061113682610b45565b6000611140611114565b90506000815111611160576040518060200160405280600081525061118b565b8061116a8461141b565b60405160200161117b9291906121c6565b6040516020818303038152906040525b915050919050565b6111ad82826040518060200160405280600081525061157b565b5050565b6111ba8261121e565b6111f9576040517f08c379a00000000000000000000000000000000000000000000000000000000081526004016111f09061255d565b60405180910390fd5b806006600084815260200190815260200160002090816112199190612729565b505050565b60008073ffffffffffffffffffffffffffffffffffffffff166002600084815260200190815260200160002060009054906101000a900473ffffffffffffffffffffffffffffffffffffffff1673ffffffffffffffffffffffffffffffffffffffff1614159050919050565b505050565b505050565b60006112b58473ffffffffffffffffffffffffffffffffffffffff166115d6565b1561140e578373ffffffffffffffffffffffffffffffffffffffff1663150b7a026112de610b90565b8786866040518563ffffffff1660e01b81526004016113009493929190612850565b6020604051808303816000875af192505050801561133c57506040513d601f19601f8201168201806040525081019061133991906128b1565b60015b6113be573d806000811461136c576040519150601f19603f3d011682016040523d82523d6000602084013e611371565b606091505b5060008151036113b6576040517f08c379a00000000000000000000000000000000000000000000000000000000081526004016113ad906124cb565b60405180910390fd5b805181602001fd5b63150b7a0260e01b7bffffffffffffffffffffffffffffffffffffffffffffffffffffffff1916817bffffffffffffffffffffffffffffffffffffffffffffffffffffffff191614915050611413565b600190505b949350505050565b606060008203611462576040518060400160405280600181526020017f30000000000000000000000000000000000000000000000000000000000000008152509050611576565b600082905060005b6000821461149457808061147d90612219565b915050600a8261148d919061290d565b915061146a565b60008167ffffffffffffffff8111156114b0576114af611b9e565b5b6040519080825280601f01601f1916602001820160405280156114e25781602001600182028036833780820191505090505b5090505b6000851461156f576001826114fb9190612385565b9150600a8561150a919061293e565b603061151691906123b9565b60f81b81838151811061152c5761152b61296f565b5b60200101907effffffffffffffffffffffffffffffffffffffffffffffffffffffffffffff1916908160001a905350600a85611568919061290d565b94506114e6565b8093505050505b919050565b61158583836115f9565b6115926000848484611294565b6115d1576040517f08c379a00000000000000000000000000000000000000000000000000000000081526004016115c8906124cb565b60405180910390fd5b505050565b6000808273ffffffffffffffffffffffffffffffffffffffff163b119050919050565b600073ffffffffffffffffffffffffffffffffffffffff168273ffffffffffffffffffffffffffffffffffffffff1603611668576040517f08c379a000000000000000000000000000000000000000000000000000000000815260040161165f906129ea565b60405180910390fd5b6116718161121e565b156116b1576040517f08c379a00000000000000000000000000000000000000000000000000000000081526004016116a890612a56565b60405180910390fd5b6116bd6000838361128a565b6001600360008473ffffffffffffffffffffffffffffffffffffffff1673ffffffffffffffffffffffffffffffffffffffff168152602001908152602001600020600082825461170d91906123b9565b92505081905550816002600083815260200190815260200160002060006101000a81548173ffffffffffffffffffffffffffffffffffffffff021916908373ffffffffffffffffffffffffffffffffffffffff160217905550808273ffffffffffffffffffffffffffffffffffffffff16600073ffffffffffffffffffffffffffffffffffffffff167fddf252ad1be2c89b69c2b068fc378daa952ba7f163c4a11628f55a4df523b3ef60405160405180910390a46117ce6000838361128f565b5050565b6000604051905090565b600080fd5b600080fd5b60007fffffffff0000000000000000000000000000000000000000000000000000000082169050919050565b61181b816117e6565b811461182657600080fd5b50565b60008135905061183881611812565b92915050565b600060208284031215611854576118536117dc565b5b600061186284828501611829565b91505092915050565b60008115159050919050565b6118808161186b565b82525050565b600060208201905061189b6000830184611877565b92915050565b600081519050919050565b600082825260208201905092915050565b60005b838110156118db5780820151818401526020810190506118c0565b60008484015250505050565b6000601f19601f8301169050919050565b6000611903826118a1565b61190d81856118ac565b935061191d8185602086016118bd565b611926816118e7565b840191505092915050565b6000602082019050818103600083015261194b81846118f8565b905092915050565b6000819050919050565b61196681611953565b811461197157600080fd5b50565b6000813590506119838161195d565b92915050565b60006020828403121561199f5761199e6117dc565b5b60006119ad84828501611974565b91505092915050565b600073ffffffffffffffffffffffffffffffffffffffff82169050919050565b60006119e1826119b6565b9050919050565b6119f1816119d6565b82525050565b6000602082019050611a0c60008301846119e8565b92915050565b611a1b816119d6565b8114611a2657600080fd5b50565b600081359050611a3881611a12565b92915050565b60008060408385031215611a5557611a546117dc565b5b6000611a6385828601611a29565b9250506020611a7485828601611974565b9150509250929050565b600080600060608486031215611a9757611a966117dc565b5b6000611aa586828701611a29565b9350506020611ab686828701611a29565b9250506040611ac786828701611974565b9150509250925092565b600060208284031215611ae757611ae66117dc565b5b6000611af584828501611a29565b91505092915050565b611b0781611953565b82525050565b6000602082019050611b226000830184611afe565b92915050565b611b318161186b565b8114611b3c57600080fd5b50565b600081359050611b4e81611b28565b92915050565b60008060408385031215611b6b57611b6a6117dc565b5b6000611b7985828601611a29565b9250506020611b8a85828601611b3f565b9150509250929050565b600080fd5b600080fd5b7f4e487b7100000000000000000000000000000000000000000000000000000000600052604160045260246000fd5b611bd6826118e7565b810181811067ffffffffffffffff82111715611bf557611bf4611b9e565b5b80604052505050565b6000611c086117d2565b9050611c148282611bcd565b919050565b600067ffffffffffffffff821115611c3457611c33611b9e565b5b611c3d826118e7565b9050602081019050919050565b82818337600083830152505050565b6000611c6c611c6784611c19565b611bfe565b905082815260208101848484011115611c8857611c87611b99565b5b611c93848285611c4a565b509392505050565b600082601f830112611cb057611caf611b94565b5b8135611cc0848260208601611c59565b91505092915050565b60008060008060808587031215611ce357611ce26117dc565b5b6000611cf187828801611a29565b9450506020611d0287828801611a29565b9350506040611d1387828801611974565b925050606085013567ffffffffffffffff811115611d3457611d336117e1565b5b611d4087828801611c9b565b91505092959194509250565b600067ffffffffffffffff821115611d6757611d66611b9e565b5b611d70826118e7565b9050602081019050919050565b6000611d90611d8b84611d4c565b611bfe565b905082815260208101848484011115611dac57611dab611b99565b5b611db7848285611c4a565b509392505050565b600082601f830112611dd457611dd3611b94565b5b8135611de4848260208601611d7d565b91505092915050565b600060208284031215611e0357611e026117dc565b5b600082013567ffffffffffffffff811115611e2157611e206117e1565b5b611e2d84828501611dbf565b91505092915050565b60008060408385031215611e4d57611e4c6117dc565b5b6000611e5b85828601611a29565b9250506020611e6c85828601611a29565b9150509250929050565b7f4e487b7100000000000000000000000000000000000000000000000000000000600052602260045260246000fd5b60006002820490506001821680611ebd57607f821691505b602082108103611ed057611ecf611e76565b5b50919050565b7f4552433732313a20617070726f76616c20746f2063757272656e74206f776e6560008201527f7200000000000000000000000000000000000000000000000000000000000000602082015250565b6000611f326021836118ac565b9150611f3d82611ed6565b604082019050919050565b60006020820190508181036000830152611f6181611f25565b9050919050565b7f4552433732313a20617070726f76652063616c6c6572206973206e6f7420746f60008201527f6b656e206f776e6572206e6f7220617070726f76656420666f7220616c6c0000602082015250565b6000611fc4603e836118ac565b9150611fcf82611f68565b604082019050919050565b60006020820190508181036000830152611ff381611fb7565b9050919050565b7f4552433732313a2063616c6c6572206973206e6f7420746f6b656e206f776e6560008201527f72206e6f7220617070726f766564000000000000000000000000000000000000602082015250565b6000612056602e836118ac565b915061206182611ffa565b604082019050919050565b6000602082019050818103600083015261208581612049565b9050919050565b7f4552433732313a20696e76616c696420746f6b656e2049440000000000000000600082015250565b60006120c26018836118ac565b91506120cd8261208c565b602082019050919050565b600060208201905081810360008301526120f1816120b5565b9050919050565b7f4552433732313a2061646472657373207a65726f206973206e6f74206120766160008201527f6c6964206f776e65720000000000000000000000000000000000000000000000602082015250565b60006121546029836118ac565b915061215f826120f8565b604082019050919050565b6000602082019050818103600083015261218381612147565b9050919050565b600081905092915050565b60006121a0826118a1565b6121aa818561218a565b93506121ba8185602086016118bd565b80840191505092915050565b60006121d28285612195565b91506121de8284612195565b91508190509392505050565b7f4e487b7100000000000000000000000000000000000000000000000000000000600052601160045260246000fd5b600061222482611953565b91507fffffffffffffffffffffffffffffffffffffffffffffffffffffffffffffffff8203612256576122556121ea565b5b600182019050919050565b7f4552433732313a207472616e736665722066726f6d20696e636f72726563742060008201527f6f776e6572000000000000000000000000000000000000000000000000000000602082015250565b60006122bd6025836118ac565b91506122c882612261565b604082019050919050565b600060208201905081810360008301526122ec816122b0565b9050919050565b7f4552433732313a207472616e7366657220746f20746865207a65726f2061646460008201527f7265737300000000000000000000000000000000000000000000000000000000602082015250565b600061234f6024836118ac565b915061235a826122f3565b604082019050919050565b6000602082019050818103600083015261237e81612342565b9050919050565b600061239082611953565b915061239b83611953565b92508282039050818111156123b3576123b26121ea565b5b92915050565b60006123c482611953565b91506123cf83611953565b92508282019050808211156123e7576123e66121ea565b5b92915050565b7f4552433732313a20617070726f766520746f2063616c6c657200000000000000600082015250565b60006124236019836118ac565b915061242e826123ed565b602082019050919050565b6000602082019050818103600083015261245281612416565b9050919050565b7f4552433732313a207472616e7366657220746f206e6f6e20455243373231526560008201527f63656976657220696d706c656d656e7465720000000000000000000000000000602082015250565b60006124b56032836118ac565b91506124c082612459565b604082019050919050565b600060208201905081810360008301526124e4816124a8565b9050919050565b7f45524337323155524953746f726167653a2055524920736574206f66206e6f6e60008201527f6578697374656e7420746f6b656e000000000000000000000000000000000000602082015250565b6000612547602e836118ac565b9150612552826124eb565b604082019050919050565b600060208201905081810360008301526125768161253a565b9050919050565b60008190508160005260206000209050919050565b60006020601f8301049050919050565b600082821b905092915050565b6000600883026125df7fffffffffffffffffffffffffffffffffffffffffffffffffffffffffffffffff826125a2565b6125e986836125a2565b95508019841693508086168417925050509392505050565b6000819050919050565b600061262661262161261c84611953565b612601565b611953565b9050919050565b6000819050919050565b6126408361260b565b61265461264c8261262d565b8484546125af565b825550505050565b600090565b61266961265c565b612674818484612637565b505050565b5b818110156126985761268d600082612661565b60018101905061267a565b5050565b601f8211156126dd576126ae8161257d565b6126b784612592565b810160208510156126c6578190505b6126da6126d285612592565b830182612679565b50505b505050565b600082821c905092915050565b6000612700600019846008026126e2565b1980831691505092915050565b600061271983836126ef565b9150826002028217905092915050565b612732826118a1565b67ffffffffffffffff81111561274b5761274a611b9e565b5b6127558254611ea5565b61276082828561269c565b600060209050601f8311600181146127935760008415612781578287015190505b61278b858261270d565b8655506127f3565b601f1984166127a18661257d565b60005b828110156127c9578489015182556001820191506020850194506020810190506127a4565b868310156127e657848901516127e2601f8916826126ef565b8355505b6001600288020188555050505b505050505050565b600081519050919050565b600082825260208201905092915050565b6000612822826127fb565b61282c8185612806565b935061283c8185602086016118bd565b612845816118e7565b840191505092915050565b600060808201905061286560008301876119e8565b61287260208301866119e8565b61287f6040830185611afe565b81810360608301526128918184612817565b905095945050505050565b6000815190506128ab81611812565b92915050565b6000602082840312156128c7576128c66117dc565b5b60006128d58482850161289c565b91505092915050565b7f4e487b7100000000000000000000000000000000000000000000000000000000600052601260045260246000fd5b600061291882611953565b915061292383611953565b925082612933576129326128de565b5b828204905092915050565b600061294982611953565b915061295483611953565b925082612964576129636128de565b5b828206905092915050565b7f4e487b7100000000000000000000000000000000000000000000000000000000600052603260045260246000fd5b7f4552433732313a206d696e7420746f20746865207a65726f2061646472657373600082015250565b60006129d46020836118ac565b91506129df8261299e565b602082019050919050565b60006020820190508181036000830152612a03816129c7565b9050919050565b7f4552433732313a20746f6b656e20616c7265616479206d696e74656400000000600082015250565b6000612a40601c836118ac565b9150612a4b82612a0a565b602082019050919050565b60006020820190508181036000830152612a6f81612a33565b905091905056fea26469706673582212200fd297871fd584ed1a84446891ae92b067377e032853a3f3a1cb4b539ca12f1a64736f6c63430008100033",
      "opcodes": "PUSH1 0x80 PUSH1 0x40 MSTORE CALLVALUE DUP1 ISZERO PUSH3 0x11 JUMPI PUSH1 0x0 DUP1 REVERT JUMPDEST POP PUSH1 0x40 MLOAD DUP1 PUSH1 0x40 ADD PUSH1 0x40 MSTORE DUP1 PUSH1 0x8 DUP2 MSTORE PUSH1 0x20 ADD PUSH32 0x44417070204E4654000000000000000000000000000000000000000000000000 DUP2 MSTORE POP PUSH1 0x40 MLOAD DUP1 PUSH1 0x40 ADD PUSH1 0x40 MSTORE DUP1 PUSH1 0x4 DUP2 MSTORE PUSH1 0x20 ADD PUSH32 0x4441505000000000000000000000000000000000000000000000000000000000 DUP2 MSTORE POP DUP2 PUSH1 0x0 SWAP1 DUP2 PUSH3 0x8F SWAP2 SWAP1 PUSH3 0x324 JUMP JUMPDEST POP DUP1 PUSH1 0x1 SWAP1 DUP2 PUSH3 0xA1 SWAP2 SWAP1 PUSH3 0x324 JUMP JUMPDEST POP POP POP PUSH3 0x40B JUMP JUMPDEST PUSH1 0x0 DUP2 MLOAD SWAP1 POP SWAP2 SWAP1 POP JUMP JUMPDEST PUSH32 0x4E487B7100000000000000000000000000000000000000000000000000000000 PUSH1 0x0 MSTORE PUSH1 0x41 PUSH1 0x4 MSTORE PUSH1 0x24 PUSH1 0x0 REVERT JUMPDEST PUSH32 0x4E487B7100000000000000000000000000000000000000000000000000000000 PUSH1 0x0 MSTORE PUSH1 0x22 PUSH1 0x4 MSTORE PUSH1 0x24 PUSH1 0x0 REVERT JUMPDEST PUSH1 0x0 PUSH1 0x2 DUP3 DIV SWAP1 POP PUSH1 0x1 DUP3 AND DUP1 PUSH3 0x12C JUMPI PUSH1 0x7F DUP3 AND SWAP2 POP JUMPDEST PUSH1 0x20 DUP3 LT DUP2 SUB PUSH3 0x142 JUMPI PUSH3 0x141 PUSH3 0xE4 JUMP JUMPDEST JUMPDEST POP SWAP2 SWAP1 POP JUMP JUMPDEST PUSH1 0x0 DUP2 SWAP1 POP DUP2 PUSH1 0x0 MSTORE PUSH1 0x20 PUSH1 0x0 KECCAK256 SWAP1 POP SWAP2 SWAP1 POP JUMP JUMPDEST PUSH1 0x0 PUSH1 0x20 PUSH1 0x1F DUP4 ADD DIV SWAP1 POP SWAP2 SWAP1 POP JUMP JUMPDEST PUSH1 0x0 DUP3 DUP3 SHL SWAP1 POP SWAP3 SWAP2 POP POP JUMP JUMPDEST PUSH1 0x0 PUSH1 0x8 DUP4 MUL PUSH3 0x1AC PUSH32 0xFFFFFFFFFFFFFFFFFFFFFFFFFFFFFFFFFFFFFFFFFFFFFFFFFFFFFFFFFFFFFFFF DUP3 PUSH3 0x16D JUMP JUMPDEST PUSH3 0x1B8 DUP7 DUP4 PUSH3 0x16D JUMP JUMPDEST SWAP6 POP DUP1 NOT DUP5 AND SWAP4 POP DUP1 DUP7 AND DUP5 OR SWAP3 POP POP POP SWAP4 SWAP3 POP POP POP JUMP JUMPDEST PUSH1 0x0 DUP2 SWAP1 POP SWAP2 SWAP1 POP JUMP JUMPDEST PUSH1 0x0 DUP2 SWAP1 POP SWAP2 SWAP1 POP JUMP JUMPDEST PUSH1 0x0 PUSH3 0x205 PUSH3 0x1FF PUSH3 0x1F9 DUP5 PUSH3 0x1D0 JUMP JUMPDEST PUSH3 0x1DA JUMP JUMPDEST PUSH3 0x1D0 JUMP JUMPDEST SWAP1 POP SWAP2 SWAP1 POP JUMP JUMPDEST PUSH1 0x0 DUP2 SWAP1 POP SWAP2 SWAP1 POP JUMP JUMPDEST PUSH3 0x221 DUP4 PUSH3 0x1E4 JUMP JUMPDEST PUSH3 0x239 PUSH3 0x230 DUP3 PUSH3 0x20C JUMP JUMPDEST DUP5 DUP5 SLOAD PUSH3 0x17A JUMP JUMPDEST DUP3 SSTORE POP POP POP POP JUMP JUMPDEST PUSH1 0x0 SWAP1 JUMP JUMPDEST PUSH3 0x250 PUSH3 0x241 JUMP JUMPDEST PUSH3 0x25D DUP2 DUP5 DUP5 PUSH3 0x216 JUMP JUMPDEST POP POP POP JUMP JUMPDEST JUMPDEST DUP2 DUP2 LT ISZERO PUSH3 0x285 JUMPI PUSH3 0x279 PUSH1 0x0 DUP3 PUSH3 0x246 JUMP JUMPDEST PUSH1 0x1 DUP2 ADD SWAP1 POP PUSH3 0x263 JUMP JUMPDEST POP POP JUMP JUMPDEST PUSH1 0x1F DUP3 GT ISZERO PUSH3 0x2D4 JUMPI PUSH3 0x29E DUP2 PUSH3 0x148 JUMP JUMPDEST PUSH3 0x2A9 DUP5 PUSH3 0x15D JUMP JUMPDEST DUP2 ADD PUSH1 0x20 DUP6 LT ISZERO PUSH3 0x2B9 JUMPI DUP2 SWAP1 POP JUMPDEST PUSH3 0x2D1 PUSH3 0x2C8 DUP6 PUSH3 0x15D JUMP JUMPDEST DUP4 ADD DUP3 PUSH3 0x262 JUMP JUMPDEST POP POP JUMPDEST POP POP POP JUMP JUMPDEST PUSH1 0x0 DUP3 DUP3 SHR SWAP1 POP SWAP3 SWAP2 POP POP JUMP JUMPDEST PUSH1 0x0 PUSH3 0x2F9 PUSH1 0x0 NOT DUP5 PUSH1 0x8 MUL PUSH3 0x2D9 JUMP JUMPDEST NOT DUP1 DUP4 AND SWAP2 POP POP SWAP3 SWAP2 POP POP JUMP JUMPDEST PUSH1 0x0 PUSH3 0x314 DUP4 DUP4 PUSH3 0x2E6 JUMP JUMPDEST SWAP2 POP DUP3 PUSH1 0x2 MUL DUP3 OR SWAP1 POP SWAP3 SWAP2 POP POP JUMP JUMPDEST PUSH3 0x32F DUP3 PUSH3 0xAA JUMP JUMPDEST PUSH8 0xFFFFFFFFFFFFFFFF DUP2 GT ISZERO PUSH3 0x34B JUMPI PUSH3 0x34A PUSH3 0xB5 JUMP JUMPDEST JUMPDEST PUSH3 0x357 DUP3 SLOAD PUSH3 0x113 JUMP JUMPDEST PUSH3 0x364 DUP3 DUP3 DUP6 PUSH3 0x289 JUMP JUMPDEST PUSH1 0x0 PUSH1 0x20 SWAP1 POP PUSH1 0x1F DUP4 GT PUSH1 0x1 DUP2 EQ PUSH3 0x39C JUMPI PUSH1 0x0 DUP5 ISZERO PUSH3 0x387 JUMPI DUP3 DUP8 ADD MLOAD SWAP1 POP JUMPDEST PUSH3 0x393 DUP6 DUP3 PUSH3 0x306 JUMP JUMPDEST DUP7 SSTORE POP PUSH3 0x403 JUMP JUMPDEST PUSH1 0x1F NOT DUP5 AND PUSH3 0x3AC DUP7 PUSH3 0x148 JUMP JUMPDEST PUSH1 0x0 JUMPDEST DUP3 DUP2 LT ISZERO PUSH3 0x3D6 JUMPI DUP5 DUP10 ADD MLOAD DUP3 SSTORE PUSH1 0x1 DUP3 ADD SWAP2 POP PUSH1 0x20 DUP6 ADD SWAP5 POP PUSH1 0x20 DUP2 ADD SWAP1 POP PUSH3 0x3AF JUMP JUMPDEST DUP7 DUP4 LT ISZERO PUSH3 0x3F6 JUMPI DUP5 DUP10 ADD MLOAD PUSH3 0x3F2 PUSH1 0x1F DUP10 AND DUP3 PUSH3 0x2E6 JUMP JUMPDEST DUP4 SSTORE POP JUMPDEST PUSH1 0x1 PUSH1 0x2 DUP9 MUL ADD DUP9 SSTORE POP POP POP JUMPDEST POP POP POP POP POP POP JUMP JUMPDEST PUSH2 0x2AAC DUP1 PUSH3 0x41B PUSH1 0x0 CODECOPY PUSH1 0x0 RETURN INVALID PUSH1 0x80 PUSH1 0x40 MSTORE CALLVALUE DUP1 ISZERO PUSH2 0x10 JUMPI PUSH1 0x0 DUP1 REVERT JUMPDEST POP PUSH1 0x4 CALLDATASIZE LT PUSH2 0xF5 JUMPI PUSH1 0x0 CALLDATALOAD PUSH1 0xE0 SHR DUP1 PUSH4 0x70A08231 GT PUSH2 0x97 JUMPI DUP1 PUSH4 0xB88D4FDE GT PUSH2 0x66 JUMPI DUP1 PUSH4 0xB88D4FDE EQ PUSH2 0x284 JUMPI DUP1 PUSH4 0xC87B56DD EQ PUSH2 0x2A0 JUMPI DUP1 PUSH4 0xD85D3D27 EQ PUSH2 0x2D0 JUMPI DUP1 PUSH4 0xE985E9C5 EQ PUSH2 0x300 JUMPI PUSH2 0xF5 JUMP JUMPDEST DUP1 PUSH4 0x70A08231 EQ PUSH2 0x1FC JUMPI DUP1 PUSH4 0x95D89B41 EQ PUSH2 0x22C JUMPI DUP1 PUSH4 0x9F181B5E EQ PUSH2 0x24A JUMPI DUP1 PUSH4 0xA22CB465 EQ PUSH2 0x268 JUMPI PUSH2 0xF5 JUMP JUMPDEST DUP1 PUSH4 0x95EA7B3 GT PUSH2 0xD3 JUMPI DUP1 PUSH4 0x95EA7B3 EQ PUSH2 0x178 JUMPI DUP1 PUSH4 0x23B872DD EQ PUSH2 0x194 JUMPI DUP1 PUSH4 0x42842E0E EQ PUSH2 0x1B0 JUMPI DUP1 PUSH4 0x6352211E EQ PUSH2 0x1CC JUMPI PUSH2 0xF5 JUMP JUMPDEST DUP1 PUSH4 0x1FFC9A7 EQ PUSH2 0xFA JUMPI DUP1 PUSH4 0x6FDDE03 EQ PUSH2 0x12A JUMPI DUP1 PUSH4 0x81812FC EQ PUSH2 0x148 JUMPI JUMPDEST PUSH1 0x0 DUP1 REVERT JUMPDEST PUSH2 0x114 PUSH1 0x4 DUP1 CALLDATASIZE SUB DUP2 ADD SWAP1 PUSH2 0x10F SWAP2 SWAP1 PUSH2 0x183E JUMP JUMPDEST PUSH2 0x330 JUMP JUMPDEST PUSH1 0x40 MLOAD PUSH2 0x121 SWAP2 SWAP1 PUSH2 0x1886 JUMP JUMPDEST PUSH1 0x40 MLOAD DUP1 SWAP2 SUB SWAP1 RETURN JUMPDEST PUSH2 0x132 PUSH2 0x412 JUMP JUMPDEST PUSH1 0x40 MLOAD PUSH2 0x13F SWAP2 SWAP1 PUSH2 0x1931 JUMP JUMPDEST PUSH1 0x40 MLOAD DUP1 SWAP2 SUB SWAP1 RETURN JUMPDEST PUSH2 0x162 PUSH1 0x4 DUP1 CALLDATASIZE SUB DUP2 ADD SWAP1 PUSH2 0x15D SWAP2 SWAP1 PUSH2 0x1989 JUMP JUMPDEST PUSH2 0x4A4 JUMP JUMPDEST PUSH1 0x40 MLOAD PUSH2 0x16F SWAP2 SWAP1 PUSH2 0x19F7 JUMP JUMPDEST PUSH1 0x40 MLOAD DUP1 SWAP2 SUB SWAP1 RETURN JUMPDEST PUSH2 0x192 PUSH1 0x4 DUP1 CALLDATASIZE SUB DUP2 ADD SWAP1 PUSH2 0x18D SWAP2 SWAP1 PUSH2 0x1A3E JUMP JUMPDEST PUSH2 0x4EA JUMP JUMPDEST STOP JUMPDEST PUSH2 0x1AE PUSH1 0x4 DUP1 CALLDATASIZE SUB DUP2 ADD SWAP1 PUSH2 0x1A9 SWAP2 SWAP1 PUSH2 0x1A7E JUMP JUMPDEST PUSH2 0x601 JUMP JUMPDEST STOP JUMPDEST PUSH2 0x1CA PUSH1 0x4 DUP1 CALLDATASIZE SUB DUP2 ADD SWAP1 PUSH2 0x1C5 SWAP2 SWAP1 PUSH2 0x1A7E JUMP JUMPDEST PUSH2 0x661 JUMP JUMPDEST STOP JUMPDEST PUSH2 0x1E6 PUSH1 0x4 DUP1 CALLDATASIZE SUB DUP2 ADD SWAP1 PUSH2 0x1E1 SWAP2 SWAP1 PUSH2 0x1989 JUMP JUMPDEST PUSH2 0x681 JUMP JUMPDEST PUSH1 0x40 MLOAD PUSH2 0x1F3 SWAP2 SWAP1 PUSH2 0x19F7 JUMP JUMPDEST PUSH1 0x40 MLOAD DUP1 SWAP2 SUB SWAP1 RETURN JUMPDEST PUSH2 0x216 PUSH1 0x4 DUP1 CALLDATASIZE SUB DUP2 ADD SWAP1 PUSH2 0x211 SWAP2 SWAP1 PUSH2 0x1AD1 JUMP JUMPDEST PUSH2 0x732 JUMP JUMPDEST PUSH1 0x40 MLOAD PUSH2 0x223 SWAP2 SWAP1 PUSH2 0x1B0D JUMP JUMPDEST PUSH1 0x40 MLOAD DUP1 SWAP2 SUB SWAP1 RETURN JUMPDEST PUSH2 0x234 PUSH2 0x7E9 JUMP JUMPDEST PUSH1 0x40 MLOAD PUSH2 0x241 SWAP2 SWAP1 PUSH2 0x1931 JUMP JUMPDEST PUSH1 0x40 MLOAD DUP1 SWAP2 SUB SWAP1 RETURN JUMPDEST PUSH2 0x252 PUSH2 0x87B JUMP JUMPDEST PUSH1 0x40 MLOAD PUSH2 0x25F SWAP2 SWAP1 PUSH2 0x1B0D JUMP JUMPDEST PUSH1 0x40 MLOAD DUP1 SWAP2 SUB SWAP1 RETURN JUMPDEST PUSH2 0x282 PUSH1 0x4 DUP1 CALLDATASIZE SUB DUP2 ADD SWAP1 PUSH2 0x27D SWAP2 SWAP1 PUSH2 0x1B54 JUMP JUMPDEST PUSH2 0x881 JUMP JUMPDEST STOP JUMPDEST PUSH2 0x29E PUSH1 0x4 DUP1 CALLDATASIZE SUB DUP2 ADD SWAP1 PUSH2 0x299 SWAP2 SWAP1 PUSH2 0x1CC9 JUMP JUMPDEST PUSH2 0x897 JUMP JUMPDEST STOP JUMPDEST PUSH2 0x2BA PUSH1 0x4 DUP1 CALLDATASIZE SUB DUP2 ADD SWAP1 PUSH2 0x2B5 SWAP2 SWAP1 PUSH2 0x1989 JUMP JUMPDEST PUSH2 0x8F9 JUMP JUMPDEST PUSH1 0x40 MLOAD PUSH2 0x2C7 SWAP2 SWAP1 PUSH2 0x1931 JUMP JUMPDEST PUSH1 0x40 MLOAD DUP1 SWAP2 SUB SWAP1 RETURN JUMPDEST PUSH2 0x2EA PUSH1 0x4 DUP1 CALLDATASIZE SUB DUP2 ADD SWAP1 PUSH2 0x2E5 SWAP2 SWAP1 PUSH2 0x1DED JUMP JUMPDEST PUSH2 0xA0B JUMP JUMPDEST PUSH1 0x40 MLOAD PUSH2 0x2F7 SWAP2 SWAP1 PUSH2 0x1B0D JUMP JUMPDEST PUSH1 0x40 MLOAD DUP1 SWAP2 SUB SWAP1 RETURN JUMPDEST PUSH2 0x31A PUSH1 0x4 DUP1 CALLDATASIZE SUB DUP2 ADD SWAP1 PUSH2 0x315 SWAP2 SWAP1 PUSH2 0x1E36 JUMP JUMPDEST PUSH2 0xA47 JUMP JUMPDEST PUSH1 0x40 MLOAD PUSH2 0x327 SWAP2 SWAP1 PUSH2 0x1886 JUMP JUMPDEST PUSH1 0x40 MLOAD DUP1 SWAP2 SUB SWAP1 RETURN JUMPDEST PUSH1 0x0 PUSH32 0x80AC58CD00000000000000000000000000000000000000000000000000000000 PUSH28 0xFFFFFFFFFFFFFFFFFFFFFFFFFFFFFFFFFFFFFFFFFFFFFFFFFFFFFFFF NOT AND DUP3 PUSH28 0xFFFFFFFFFFFFFFFFFFFFFFFFFFFFFFFFFFFFFFFFFFFFFFFFFFFFFFFF NOT AND EQ DUP1 PUSH2 0x3FB JUMPI POP PUSH32 0x5B5E139F00000000000000000000000000000000000000000000000000000000 PUSH28 0xFFFFFFFFFFFFFFFFFFFFFFFFFFFFFFFFFFFFFFFFFFFFFFFFFFFFFFFF NOT AND DUP3 PUSH28 0xFFFFFFFFFFFFFFFFFFFFFFFFFFFFFFFFFFFFFFFFFFFFFFFFFFFFFFFF NOT AND EQ JUMPDEST DUP1 PUSH2 0x40B JUMPI POP PUSH2 0x40A DUP3 PUSH2 0xADB JUMP JUMPDEST JUMPDEST SWAP1 POP SWAP2 SWAP1 POP JUMP JUMPDEST PUSH1 0x60 PUSH1 0x0 DUP1 SLOAD PUSH2 0x421 SWAP1 PUSH2 0x1EA5 JUMP JUMPDEST DUP1 PUSH1 0x1F ADD PUSH1 0x20 DUP1 SWAP2 DIV MUL PUSH1 0x20 ADD PUSH1 0x40 MLOAD SWAP1 DUP2 ADD PUSH1 0x40 MSTORE DUP1 SWAP3 SWAP2 SWAP1 DUP2 DUP2 MSTORE PUSH1 0x20 ADD DUP3 DUP1 SLOAD PUSH2 0x44D SWAP1 PUSH2 0x1EA5 JUMP JUMPDEST DUP1 ISZERO PUSH2 0x49A JUMPI DUP1 PUSH1 0x1F LT PUSH2 0x46F JUMPI PUSH2 0x100 DUP1 DUP4 SLOAD DIV MUL DUP4 MSTORE SWAP2 PUSH1 0x20 ADD SWAP2 PUSH2 0x49A JUMP JUMPDEST DUP3 ADD SWAP2 SWAP1 PUSH1 0x0 MSTORE PUSH1 0x20 PUSH1 0x0 KECCAK256 SWAP1 JUMPDEST DUP2 SLOAD DUP2 MSTORE SWAP1 PUSH1 0x1 ADD SWAP1 PUSH1 0x20 ADD DUP1 DUP4 GT PUSH2 0x47D JUMPI DUP3 SWAP1 SUB PUSH1 0x1F AND DUP3 ADD SWAP2 JUMPDEST POP POP POP POP POP SWAP1 POP SWAP1 JUMP JUMPDEST PUSH1 0x0 PUSH2 0x4AF DUP3 PUSH2 0xB45 JUMP JUMPDEST PUSH1 0x4 PUSH1 0x0 DUP4 DUP2 MSTORE PUSH1 0x20 ADD SWAP1 DUP2 MSTORE PUSH1 0x20 ADD PUSH1 0x0 KECCAK256 PUSH1 0x0 SWAP1 SLOAD SWAP1 PUSH2 0x100 EXP SWAP1 DIV PUSH20 0xFFFFFFFFFFFFFFFFFFFFFFFFFFFFFFFFFFFFFFFF AND SWAP1 POP SWAP2 SWAP1 POP JUMP JUMPDEST PUSH1 0x0 PUSH2 0x4F5 DUP3 PUSH2 0x681 JUMP JUMPDEST SWAP1 POP DUP1 PUSH20 0xFFFFFFFFFFFFFFFFFFFFFFFFFFFFFFFFFFFFFFFF AND DUP4 PUSH20 0xFFFFFFFFFFFFFFFFFFFFFFFFFFFFFFFFFFFFFFFF AND SUB PUSH2 0x565 JUMPI PUSH1 0x40 MLOAD PUSH32 0x8C379A000000000000000000000000000000000000000000000000000000000 DUP2 MSTORE PUSH1 0x4 ADD PUSH2 0x55C SWAP1 PUSH2 0x1F48 JUMP JUMPDEST PUSH1 0x40 MLOAD DUP1 SWAP2 SUB SWAP1 REVERT JUMPDEST DUP1 PUSH20 0xFFFFFFFFFFFFFFFFFFFFFFFFFFFFFFFFFFFFFFFF AND PUSH2 0x584 PUSH2 0xB90 JUMP JUMPDEST PUSH20 0xFFFFFFFFFFFFFFFFFFFFFFFFFFFFFFFFFFFFFFFF AND EQ DUP1 PUSH2 0x5B3 JUMPI POP PUSH2 0x5B2 DUP2 PUSH2 0x5AD PUSH2 0xB90 JUMP JUMPDEST PUSH2 0xA47 JUMP JUMPDEST JUMPDEST PUSH2 0x5F2 JUMPI PUSH1 0x40 MLOAD PUSH32 0x8C379A000000000000000000000000000000000000000000000000000000000 DUP2 MSTORE PUSH1 0x4 ADD PUSH2 0x5E9 SWAP1 PUSH2 0x1FDA JUMP JUMPDEST PUSH1 0x40 MLOAD DUP1 SWAP2 SUB SWAP1 REVERT JUMPDEST PUSH2 0x5FC DUP4 DUP4 PUSH2 0xB98 JUMP JUMPDEST POP POP POP JUMP JUMPDEST PUSH2 0x612 PUSH2 0x60C PUSH2 0xB90 JUMP JUMPDEST DUP3 PUSH2 0xC51 JUMP JUMPDEST PUSH2 0x651 JUMPI PUSH1 0x40 MLOAD PUSH32 0x8C379A000000000000000000000000000000000000000000000000000000000 DUP2 MSTORE PUSH1 0x4 ADD PUSH2 0x648 SWAP1 PUSH2 0x206C JUMP JUMPDEST PUSH1 0x40 MLOAD DUP1 SWAP2 SUB SWAP1 REVERT JUMPDEST PUSH2 0x65C DUP4 DUP4 DUP4 PUSH2 0xCE6 JUMP JUMPDEST POP POP POP JUMP JUMPDEST PUSH2 0x67C DUP4 DUP4 DUP4 PUSH1 0x40 MLOAD DUP1 PUSH1 0x20 ADD PUSH1 0x40 MSTORE DUP1 PUSH1 0x0 DUP2 MSTORE POP PUSH2 0x897 JUMP JUMPDEST POP POP POP JUMP JUMPDEST PUSH1 0x0 DUP1 PUSH1 0x2 PUSH1 0x0 DUP5 DUP2 MSTORE PUSH1 0x20 ADD SWAP1 DUP2 MSTORE PUSH1 0x20 ADD PUSH1 0x0 KECCAK256 PUSH1 0x0 SWAP1 SLOAD SWAP1 PUSH2 0x100 EXP SWAP1 DIV PUSH20 0xFFFFFFFFFFFFFFFFFFFFFFFFFFFFFFFFFFFFFFFF AND SWAP1 POP PUSH1 0x0 PUSH20 0xFFFFFFFFFFFFFFFFFFFFFFFFFFFFFFFFFFFFFFFF AND DUP2 PUSH20 0xFFFFFFFFFFFFFFFFFFFFFFFFFFFFFFFFFFFFFFFF AND SUB PUSH2 0x729 JUMPI PUSH1 0x40 MLOAD PUSH32 0x8C379A000000000000000000000000000000000000000000000000000000000 DUP2 MSTORE PUSH1 0x4 ADD PUSH2 0x720 SWAP1 PUSH2 0x20D8 JUMP JUMPDEST PUSH1 0x40 MLOAD DUP1 SWAP2 SUB SWAP1 REVERT JUMPDEST DUP1 SWAP2 POP POP SWAP2 SWAP1 POP JUMP JUMPDEST PUSH1 0x0 DUP1 PUSH20 0xFFFFFFFFFFFFFFFFFFFFFFFFFFFFFFFFFFFFFFFF AND DUP3 PUSH20 0xFFFFFFFFFFFFFFFFFFFFFFFFFFFFFFFFFFFFFFFF AND SUB PUSH2 0x7A2 JUMPI PUSH1 0x40 MLOAD PUSH32 0x8C379A000000000000000000000000000000000000000000000000000000000 DUP2 MSTORE PUSH1 0x4 ADD PUSH2 0x799 SWAP1 PUSH2 0x216A JUMP JUMPDEST PUSH1 0x40 MLOAD DUP1 SWAP2 SUB SWAP1 REVERT JUMPDEST PUSH1 0x3 PUSH1 0x0 DUP4 PUSH20 0xFFFFFFFFFFFFFFFFFFFFFFFFFFFFFFFFFFFFFFFF AND PUSH20 0xFFFFFFFFFFFFFFFFFFFFFFFFFFFFFFFFFFFFFFFF AND DUP2 MSTORE PUSH1 0x20 ADD SWAP1 DUP2 MSTORE PUSH1 0x20 ADD PUSH1 0x0 KECCAK256 SLOAD SWAP1 POP SWAP2 SWAP1 POP JUMP JUMPDEST PUSH1 0x60 PUSH1 0x1 DUP1 SLOAD PUSH2 0x7F8 SWAP1 PUSH2 0x1EA5 JUMP JUMPDEST DUP1 PUSH1 0x1F ADD PUSH1 0x20 DUP1 SWAP2 DIV MUL PUSH1 0x20 ADD PUSH1 0x40 MLOAD SWAP1 DUP2 ADD PUSH1 0x40 MSTORE DUP1 SWAP3 SWAP2 SWAP1 DUP2 DUP2 MSTORE PUSH1 0x20 ADD DUP3 DUP1 SLOAD PUSH2 0x824 SWAP1 PUSH2 0x1EA5 JUMP JUMPDEST DUP1 ISZERO PUSH2 0x871 JUMPI DUP1 PUSH1 0x1F LT PUSH2 0x846 JUMPI PUSH2 0x100 DUP1 DUP4 SLOAD DIV MUL DUP4 MSTORE SWAP2 PUSH1 0x20 ADD SWAP2 PUSH2 0x871 JUMP JUMPDEST DUP3 ADD SWAP2 SWAP1 PUSH1 0x0 MSTORE PUSH1 0x20 PUSH1 0x0 KECCAK256 SWAP1 JUMPDEST DUP2 SLOAD DUP2 MSTORE SWAP1 PUSH1 0x1 ADD SWAP1 PUSH1 0x20 ADD DUP1 DUP4 GT PUSH2 0x854 JUMPI DUP3 SWAP1 SUB PUSH1 0x1F AND DUP3 ADD SWAP2 JUMPDEST POP POP POP POP POP SWAP1 POP SWAP1 JUMP JUMPDEST PUSH1 0x7 SLOAD DUP2 JUMP JUMPDEST PUSH2 0x893 PUSH2 0x88C PUSH2 0xB90 JUMP JUMPDEST DUP4 DUP4 PUSH2 0xF4C JUMP JUMPDEST POP POP JUMP JUMPDEST PUSH2 0x8A8 PUSH2 0x8A2 PUSH2 0xB90 JUMP JUMPDEST DUP4 PUSH2 0xC51 JUMP JUMPDEST PUSH2 0x8E7 JUMPI PUSH1 0x40 MLOAD PUSH32 0x8C379A000000000000000000000000000000000000000000000000000000000 DUP2 MSTORE PUSH1 0x4 ADD PUSH2 0x8DE SWAP1 PUSH2 0x206C JUMP JUMPDEST PUSH1 0x40 MLOAD DUP1 SWAP2 SUB SWAP1 REVERT JUMPDEST PUSH2 0x8F3 DUP5 DUP5 DUP5 DUP5 PUSH2 0x10B8 JUMP JUMPDEST POP POP POP POP JUMP JUMPDEST PUSH1 0x60 PUSH2 0x904 DUP3 PUSH2 0xB45 JUMP JUMPDEST PUSH1 0x0 PUSH1 0x6 PUSH1 0x0 DUP5 DUP2 MSTORE PUSH1 0x20 ADD SWAP1 DUP2 MSTORE PUSH1 0x20 ADD PUSH1 0x0 KECCAK256 DUP1 SLOAD PUSH2 0x924 SWAP1 PUSH2 0x1EA5 JUMP JUMPDEST DUP1 PUSH1 0x1F ADD PUSH1 0x20 DUP1 SWAP2 DIV MUL PUSH1 0x20 ADD PUSH1 0x40 MLOAD SWAP1 DUP2 ADD PUSH1 0x40 MSTORE DUP1 SWAP3 SWAP2 SWAP1 DUP2 DUP2 MSTORE PUSH1 0x20 ADD DUP3 DUP1 SLOAD PUSH2 0x950 SWAP1 PUSH2 0x1EA5 JUMP JUMPDEST DUP1 ISZERO PUSH2 0x99D JUMPI DUP1 PUSH1 0x1F LT PUSH2 0x972 JUMPI PUSH2 0x100 DUP1 DUP4 SLOAD DIV MUL DUP4 MSTORE SWAP2 PUSH1 0x20 ADD SWAP2 PUSH2 0x99D JUMP JUMPDEST DUP3 ADD SWAP2 SWAP1 PUSH1 0x0 MSTORE PUSH1 0x20 PUSH1 0x0 KECCAK256 SWAP1 JUMPDEST DUP2 SLOAD DUP2 MSTORE SWAP1 PUSH1 0x1 ADD SWAP1 PUSH1 0x20 ADD DUP1 DUP4 GT PUSH2 0x980 JUMPI DUP3 SWAP1 SUB PUSH1 0x1F AND DUP3 ADD SWAP2 JUMPDEST POP POP POP POP POP SWAP1 POP PUSH1 0x0 PUSH2 0x9AE PUSH2 0x1114 JUMP JUMPDEST SWAP1 POP PUSH1 0x0 DUP2 MLOAD SUB PUSH2 0x9C3 JUMPI DUP2 SWAP3 POP POP POP PUSH2 0xA06 JUMP JUMPDEST PUSH1 0x0 DUP3 MLOAD GT ISZERO PUSH2 0x9F8 JUMPI DUP1 DUP3 PUSH1 0x40 MLOAD PUSH1 0x20 ADD PUSH2 0x9E0 SWAP3 SWAP2 SWAP1 PUSH2 0x21C6 JUMP JUMPDEST PUSH1 0x40 MLOAD PUSH1 0x20 DUP2 DUP4 SUB SUB DUP2 MSTORE SWAP1 PUSH1 0x40 MSTORE SWAP3 POP POP POP PUSH2 0xA06 JUMP JUMPDEST PUSH2 0xA01 DUP5 PUSH2 0x112B JUMP JUMPDEST SWAP3 POP POP POP JUMPDEST SWAP2 SWAP1 POP JUMP JUMPDEST PUSH1 0x0 PUSH1 0x7 PUSH1 0x0 DUP2 SLOAD DUP1 SWAP3 SWAP2 SWAP1 PUSH2 0xA20 SWAP1 PUSH2 0x2219 JUMP JUMPDEST SWAP2 SWAP1 POP SSTORE POP PUSH2 0xA31 CALLER PUSH1 0x7 SLOAD PUSH2 0x1193 JUMP JUMPDEST PUSH2 0xA3D PUSH1 0x7 SLOAD DUP4 PUSH2 0x11B1 JUMP JUMPDEST PUSH1 0x7 SLOAD SWAP1 POP SWAP2 SWAP1 POP JUMP JUMPDEST PUSH1 0x0 PUSH1 0x5 PUSH1 0x0 DUP5 PUSH20 0xFFFFFFFFFFFFFFFFFFFFFFFFFFFFFFFFFFFFFFFF AND PUSH20 0xFFFFFFFFFFFFFFFFFFFFFFFFFFFFFFFFFFFFFFFF AND DUP2 MSTORE PUSH1 0x20 ADD SWAP1 DUP2 MSTORE PUSH1 0x20 ADD PUSH1 0x0 KECCAK256 PUSH1 0x0 DUP4 PUSH20 0xFFFFFFFFFFFFFFFFFFFFFFFFFFFFFFFFFFFFFFFF AND PUSH20 0xFFFFFFFFFFFFFFFFFFFFFFFFFFFFFFFFFFFFFFFF AND DUP2 MSTORE PUSH1 0x20 ADD SWAP1 DUP2 MSTORE PUSH1 0x20 ADD PUSH1 0x0 KECCAK256 PUSH1 0x0 SWAP1 SLOAD SWAP1 PUSH2 0x100 EXP SWAP1 DIV PUSH1 0xFF AND SWAP1 POP SWAP3 SWAP2 POP POP JUMP JUMPDEST PUSH1 0x0 PUSH32 0x1FFC9A700000000000000000000000000000000000000000000000000000000 PUSH28 0xFFFFFFFFFFFFFFFFFFFFFFFFFFFFFFFFFFFFFFFFFFFFFFFFFFFFFFFF NOT AND DUP3 PUSH28 0xFFFFFFFFFFFFFFFFFFFFFFFFFFFFFFFFFFFFFFFFFFFFFFFFFFFFFFFF NOT AND EQ SWAP1 POP SWAP2 SWAP1 POP JUMP JUMPDEST PUSH2 0xB4E DUP2 PUSH2 0x121E JUMP JUMPDEST PUSH2 0xB8D JUMPI PUSH1 0x40 MLOAD PUSH32 0x8C379A000000000000000000000000000000000000000000000000000000000 DUP2 MSTORE PUSH1 0x4 ADD PUSH2 0xB84 SWAP1 PUSH2 0x20D8 JUMP JUMPDEST PUSH1 0x40 MLOAD DUP1 SWAP2 SUB SWAP1 REVERT JUMPDEST POP JUMP JUMPDEST PUSH1 0x0 CALLER SWAP1 POP SWAP1 JUMP JUMPDEST DUP2 PUSH1 0x4 PUSH1 0x0 DUP4 DUP2 MSTORE PUSH1 0x20 ADD SWAP1 DUP2 MSTORE PUSH1 0x20 ADD PUSH1 0x0 KECCAK256 PUSH1 0x0 PUSH2 0x100 EXP DUP2 SLOAD DUP2 PUSH20 0xFFFFFFFFFFFFFFFFFFFFFFFFFFFFFFFFFFFFFFFF MUL NOT AND SWAP1 DUP4 PUSH20 0xFFFFFFFFFFFFFFFFFFFFFFFFFFFFFFFFFFFFFFFF AND MUL OR SWAP1 SSTORE POP DUP1 DUP3 PUSH20 0xFFFFFFFFFFFFFFFFFFFFFFFFFFFFFFFFFFFFFFFF AND PUSH2 0xC0B DUP4 PUSH2 0x681 JUMP JUMPDEST PUSH20 0xFFFFFFFFFFFFFFFFFFFFFFFFFFFFFFFFFFFFFFFF AND PUSH32 0x8C5BE1E5EBEC7D5BD14F71427D1E84F3DD0314C0F7B2291E5B200AC8C7C3B925 PUSH1 0x40 MLOAD PUSH1 0x40 MLOAD DUP1 SWAP2 SUB SWAP1 LOG4 POP POP JUMP JUMPDEST PUSH1 0x0 DUP1 PUSH2 0xC5D DUP4 PUSH2 0x681 JUMP JUMPDEST SWAP1 POP DUP1 PUSH20 0xFFFFFFFFFFFFFFFFFFFFFFFFFFFFFFFFFFFFFFFF AND DUP5 PUSH20 0xFFFFFFFFFFFFFFFFFFFFFFFFFFFFFFFFFFFFFFFF AND EQ DUP1 PUSH2 0xC9F JUMPI POP PUSH2 0xC9E DUP2 DUP6 PUSH2 0xA47 JUMP JUMPDEST JUMPDEST DUP1 PUSH2 0xCDD JUMPI POP DUP4 PUSH20 0xFFFFFFFFFFFFFFFFFFFFFFFFFFFFFFFFFFFFFFFF AND PUSH2 0xCC5 DUP5 PUSH2 0x4A4 JUMP JUMPDEST PUSH20 0xFFFFFFFFFFFFFFFFFFFFFFFFFFFFFFFFFFFFFFFF AND EQ JUMPDEST SWAP2 POP POP SWAP3 SWAP2 POP POP JUMP JUMPDEST DUP3 PUSH20 0xFFFFFFFFFFFFFFFFFFFFFFFFFFFFFFFFFFFFFFFF AND PUSH2 0xD06 DUP3 PUSH2 0x681 JUMP JUMPDEST PUSH20 0xFFFFFFFFFFFFFFFFFFFFFFFFFFFFFFFFFFFFFFFF AND EQ PUSH2 0xD5C JUMPI PUSH1 0x40 MLOAD PUSH32 0x8C379A000000000000000000000000000000000000000000000000000000000 DUP2 MSTORE PUSH1 0x4 ADD PUSH2 0xD53 SWAP1 PUSH2 0x22D3 JUMP JUMPDEST PUSH1 0x40 MLOAD DUP1 SWAP2 SUB SWAP1 REVERT JUMPDEST PUSH1 0x0 PUSH20 0xFFFFFFFFFFFFFFFFFFFFFFFFFFFFFFFFFFFFFFFF AND DUP3 PUSH20 0xFFFFFFFFFFFFFFFFFFFFFFFFFFFFFFFFFFFFFFFF AND SUB PUSH2 0xDCB JUMPI PUSH1 0x40 MLOAD PUSH32 0x8C379A000000000000000000000000000000000000000000000000000000000 DUP2 MSTORE PUSH1 0x4 ADD PUSH2 0xDC2 SWAP1 PUSH2 0x2365 JUMP JUMPDEST PUSH1 0x40 MLOAD DUP1 SWAP2 SUB SWAP1 REVERT JUMPDEST PUSH2 0xDD6 DUP4 DUP4 DUP4 PUSH2 0x128A JUMP JUMPDEST PUSH2 0xDE1 PUSH1 0x0 DUP3 PUSH2 0xB98 JUMP JUMPDEST PUSH1 0x1 PUSH1 0x3 PUSH1 0x0 DUP6 PUSH20 0xFFFFFFFFFFFFFFFFFFFFFFFFFFFFFFFFFFFFFFFF AND PUSH20 0xFFFFFFFFFFFFFFFFFFFFFFFFFFFFFFFFFFFFFFFF AND DUP2 MSTORE PUSH1 0x20 ADD SWAP1 DUP2 MSTORE PUSH1 0x20 ADD PUSH1 0x0 KECCAK256 PUSH1 0x0 DUP3 DUP3 SLOAD PUSH2 0xE31 SWAP2 SWAP1 PUSH2 0x2385 JUMP JUMPDEST SWAP3 POP POP DUP2 SWAP1 SSTORE POP PUSH1 0x1 PUSH1 0x3 PUSH1 0x0 DUP5 PUSH20 0xFFFFFFFFFFFFFFFFFFFFFFFFFFFFFFFFFFFFFFFF AND PUSH20 0xFFFFFFFFFFFFFFFFFFFFFFFFFFFFFFFFFFFFFFFF AND DUP2 MSTORE PUSH1 0x20 ADD SWAP1 DUP2 MSTORE PUSH1 0x20 ADD PUSH1 0x0 KECCAK256 PUSH1 0x0 DUP3 DUP3 SLOAD PUSH2 0xE88 SWAP2 SWAP1 PUSH2 0x23B9 JUMP JUMPDEST SWAP3 POP POP DUP2 SWAP1 SSTORE POP DUP2 PUSH1 0x2 PUSH1 0x0 DUP4 DUP2 MSTORE PUSH1 0x20 ADD SWAP1 DUP2 MSTORE PUSH1 0x20 ADD PUSH1 0x0 KECCAK256 PUSH1 0x0 PUSH2 0x100 EXP DUP2 SLOAD DUP2 PUSH20 0xFFFFFFFFFFFFFFFFFFFFFFFFFFFFFFFFFFFFFFFF MUL NOT AND SWAP1 DUP4 PUSH20 0xFFFFFFFFFFFFFFFFFFFFFFFFFFFFFFFFFFFFFFFF AND MUL OR SWAP1 SSTORE POP DUP1 DUP3 PUSH20 0xFFFFFFFFFFFFFFFFFFFFFFFFFFFFFFFFFFFFFFFF AND DUP5 PUSH20 0xFFFFFFFFFFFFFFFFFFFFFFFFFFFFFFFFFFFFFFFF AND PUSH32 0xDDF252AD1BE2C89B69C2B068FC378DAA952BA7F163C4A11628F55A4DF523B3EF PUSH1 0x40 MLOAD PUSH1 0x40 MLOAD DUP1 SWAP2 SUB SWAP1 LOG4 PUSH2 0xF47 DUP4 DUP4 DUP4 PUSH2 0x128F JUMP JUMPDEST POP POP POP JUMP JUMPDEST DUP2 PUSH20 0xFFFFFFFFFFFFFFFFFFFFFFFFFFFFFFFFFFFFFFFF AND DUP4 PUSH20 0xFFFFFFFFFFFFFFFFFFFFFFFFFFFFFFFFFFFFFFFF AND SUB PUSH2 0xFBA JUMPI PUSH1 0x40 MLOAD PUSH32 0x8C379A000000000000000000000000000000000000000000000000000000000 DUP2 MSTORE PUSH1 0x4 ADD PUSH2 0xFB1 SWAP1 PUSH2 0x2439 JUMP JUMPDEST PUSH1 0x40 MLOAD DUP1 SWAP2 SUB SWAP1 REVERT JUMPDEST DUP1 PUSH1 0x5 PUSH1 0x0 DUP6 PUSH20 0xFFFFFFFFFFFFFFFFFFFFFFFFFFFFFFFFFFFFFFFF AND PUSH20 0xFFFFFFFFFFFFFFFFFFFFFFFFFFFFFFFFFFFFFFFF AND DUP2 MSTORE PUSH1 0x20 ADD SWAP1 DUP2 MSTORE PUSH1 0x20 ADD PUSH1 0x0 KECCAK256 PUSH1 0x0 DUP5 PUSH20 0xFFFFFFFFFFFFFFFFFFFFFFFFFFFFFFFFFFFFFFFF AND PUSH20 0xFFFFFFFFFFFFFFFFFFFFFFFFFFFFFFFFFFFFFFFF AND DUP2 MSTORE PUSH1 0x20 ADD SWAP1 DUP2 MSTORE PUSH1 0x20 ADD PUSH1 0x0 KECCAK256 PUSH1 0x0 PUSH2 0x100 EXP DUP2 SLOAD DUP2 PUSH1 0xFF MUL NOT AND SWAP1 DUP4 ISZERO ISZERO MUL OR SWAP1 SSTORE POP DUP2 PUSH20 0xFFFFFFFFFFFFFFFFFFFFFFFFFFFFFFFFFFFFFFFF AND DUP4 PUSH20 0xFFFFFFFFFFFFFFFFFFFFFFFFFFFFFFFFFFFFFFFF AND PUSH32 0x17307EAB39AB6107E8899845AD3D59BD9653F200F220920489CA2B5937696C31 DUP4 PUSH1 0x40 MLOAD PUSH2 0x10AB SWAP2 SWAP1 PUSH2 0x1886 JUMP JUMPDEST PUSH1 0x40 MLOAD DUP1 SWAP2 SUB SWAP1 LOG3 POP POP POP JUMP JUMPDEST PUSH2 0x10C3 DUP5 DUP5 DUP5 PUSH2 0xCE6 JUMP JUMPDEST PUSH2 0x10CF DUP5 DUP5 DUP5 DUP5 PUSH2 0x1294 JUMP JUMPDEST PUSH2 0x110E JUMPI PUSH1 0x40 MLOAD PUSH32 0x8C379A000000000000000000000000000000000000000000000000000000000 DUP2 MSTORE PUSH1 0x4 ADD PUSH2 0x1105 SWAP1 PUSH2 0x24CB JUMP JUMPDEST PUSH1 0x40 MLOAD DUP1 SWAP2 SUB SWAP1 REVERT JUMPDEST POP POP POP POP JUMP JUMPDEST PUSH1 0x60 PUSH1 0x40 MLOAD DUP1 PUSH1 0x20 ADD PUSH1 0x40 MSTORE DUP1 PUSH1 0x0 DUP2 MSTORE POP SWAP1 POP SWAP1 JUMP JUMPDEST PUSH1 0x60 PUSH2 0x1136 DUP3 PUSH2 0xB45 JUMP JUMPDEST PUSH1 0x0 PUSH2 0x1140 PUSH2 0x1114 JUMP JUMPDEST SWAP1 POP PUSH1 0x0 DUP2 MLOAD GT PUSH2 0x1160 JUMPI PUSH1 0x40 MLOAD DUP1 PUSH1 0x20 ADD PUSH1 0x40 MSTORE DUP1 PUSH1 0x0 DUP2 MSTORE POP PUSH2 0x118B JUMP JUMPDEST DUP1 PUSH2 0x116A DUP5 PUSH2 0x141B JUMP JUMPDEST PUSH1 0x40 MLOAD PUSH1 0x20 ADD PUSH2 0x117B SWAP3 SWAP2 SWAP1 PUSH2 0x21C6 JUMP JUMPDEST PUSH1 0x40 MLOAD PUSH1 0x20 DUP2 DUP4 SUB SUB DUP2 MSTORE SWAP1 PUSH1 0x40 MSTORE JUMPDEST SWAP2 POP POP SWAP2 SWAP1 POP JUMP JUMPDEST PUSH2 0x11AD DUP3 DUP3 PUSH1 0x40 MLOAD DUP1 PUSH1 0x20 ADD PUSH1 0x40 MSTORE DUP1 PUSH1 0x0 DUP2 MSTORE POP PUSH2 0x157B JUMP JUMPDEST POP POP JUMP JUMPDEST PUSH2 0x11BA DUP3 PUSH2 0x121E JUMP JUMPDEST PUSH2 0x11F9 JUMPI PUSH1 0x40 MLOAD PUSH32 0x8C379A000000000000000000000000000000000000000000000000000000000 DUP2 MSTORE PUSH1 0x4 ADD PUSH2 0x11F0 SWAP1 PUSH2 0x255D JUMP JUMPDEST PUSH1 0x40 MLOAD DUP1 SWAP2 SUB SWAP1 REVERT JUMPDEST DUP1 PUSH1 0x6 PUSH1 0x0 DUP5 DUP2 MSTORE PUSH1 0x20 ADD SWAP1 DUP2 MSTORE PUSH1 0x20 ADD PUSH1 0x0 KECCAK256 SWAP1 DUP2 PUSH2 0x1219 SWAP2 SWAP1 PUSH2 0x2729 JUMP JUMPDEST POP POP POP JUMP JUMPDEST PUSH1 0x0 DUP1 PUSH20 0xFFFFFFFFFFFFFFFFFFFFFFFFFFFFFFFFFFFFFFFF AND PUSH1 0x2 PUSH1 0x0 DUP5 DUP2 MSTORE PUSH1 0x20 ADD SWAP1 DUP2 MSTORE PUSH1 0x20 ADD PUSH1 0x0 KECCAK256 PUSH1 0x0 SWAP1 SLOAD SWAP1 PUSH2 0x100 EXP SWAP1 DIV PUSH20 0xFFFFFFFFFFFFFFFFFFFFFFFFFFFFFFFFFFFFFFFF AND PUSH20 0xFFFFFFFFFFFFFFFFFFFFFFFFFFFFFFFFFFFFFFFF AND EQ ISZERO SWAP1 POP SWAP2 SWAP1 POP JUMP JUMPDEST POP POP POP JUMP JUMPDEST POP POP POP JUMP JUMPDEST PUSH1 0x0 PUSH2 0x12B5 DUP5 PUSH20 0xFFFFFFFFFFFFFFFFFFFFFFFFFFFFFFFFFFFFFFFF AND PUSH2 0x15D6 JUMP JUMPDEST ISZERO PUSH2 0x140E JUMPI DUP4 PUSH20 0xFFFFFFFFFFFFFFFFFFFFFFFFFFFFFFFFFFFFFFFF AND PUSH4 0x150B7A02 PUSH2 0x12DE PUSH2 0xB90 JUMP JUMPDEST DUP8 DUP7 DUP7 PUSH1 0x40 MLOAD DUP6 PUSH4 0xFFFFFFFF AND PUSH1 0xE0 SHL DUP2 MSTORE PUSH1 0x4 ADD PUSH2 0x1300 SWAP5 SWAP4 SWAP3 SWAP2 SWAP1 PUSH2 0x2850 JUMP JUMPDEST PUSH1 0x20 PUSH1 0x40 MLOAD DUP1 DUP4 SUB DUP2 PUSH1 0x0 DUP8 GAS CALL SWAP3 POP POP POP DUP1 ISZERO PUSH2 0x133C JUMPI POP PUSH1 0x40 MLOAD RETURNDATASIZE PUSH1 0x1F NOT PUSH1 0x1F DUP3 ADD AND DUP3 ADD DUP1 PUSH1 0x40 MSTORE POP DUP2 ADD SWAP1 PUSH2 0x1339 SWAP2 SWAP1 PUSH2 0x28B1 JUMP JUMPDEST PUSH1 0x1 JUMPDEST PUSH2 0x13BE JUMPI RETURNDATASIZE DUP1 PUSH1 0x0 DUP2 EQ PUSH2 0x136C JUMPI PUSH1 0x40 MLOAD SWAP2 POP PUSH1 0x1F NOT PUSH1 0x3F RETURNDATASIZE ADD AND DUP3 ADD PUSH1 0x40 MSTORE RETURNDATASIZE DUP3 MSTORE RETURNDATASIZE PUSH1 0x0 PUSH1 0x20 DUP5 ADD RETURNDATACOPY PUSH2 0x1371 JUMP JUMPDEST PUSH1 0x60 SWAP2 POP JUMPDEST POP PUSH1 0x0 DUP2 MLOAD SUB PUSH2 0x13B6 JUMPI PUSH1 0x40 MLOAD PUSH32 0x8C379A000000000000000000000000000000000000000000000000000000000 DUP2 MSTORE PUSH1 0x4 ADD PUSH2 0x13AD SWAP1 PUSH2 0x24CB JUMP JUMPDEST PUSH1 0x40 MLOAD DUP1 SWAP2 SUB SWAP1 REVERT JUMPDEST DUP1 MLOAD DUP2 PUSH1 0x20 ADD REVERT JUMPDEST PUSH4 0x150B7A02 PUSH1 0xE0 SHL PUSH28 0xFFFFFFFFFFFFFFFFFFFFFFFFFFFFFFFFFFFFFFFFFFFFFFFFFFFFFFFF NOT AND DUP2 PUSH28 0xFFFFFFFFFFFFFFFFFFFFFFFFFFFFFFFFFFFFFFFFFFFFFFFFFFFFFFFF NOT AND EQ SWAP2 POP POP PUSH2 0x1413 JUMP JUMPDEST PUSH1 0x1 SWAP1 POP JUMPDEST SWAP5 SWAP4 POP POP POP POP JUMP JUMPDEST PUSH1 0x60 PUSH1 0x0 DUP3 SUB PUSH2 0x1462 JUMPI PUSH1 0x40 MLOAD DUP1 PUSH1 0x40 ADD PUSH1 0x40 MSTORE DUP1 PUSH1 0x1 DUP2 MSTORE PUSH1 0x20 ADD PUSH32 0x3000000000000000000000000000000000000000000000000000000000000000 DUP2 MSTORE POP SWAP1 POP PUSH2 0x1576 JUMP JUMPDEST PUSH1 0x0 DUP3 SWAP1 POP PUSH1 0x0 JUMPDEST PUSH1 0x0 DUP3 EQ PUSH2 0x1494 JUMPI DUP1 DUP1 PUSH2 0x147D SWAP1 PUSH2 0x2219 JUMP JUMPDEST SWAP2 POP POP PUSH1 0xA DUP3 PUSH2 0x148D SWAP2 SWAP1 PUSH2 0x290D JUMP JUMPDEST SWAP2 POP PUSH2 0x146A JUMP JUMPDEST PUSH1 0x0 DUP2 PUSH8 0xFFFFFFFFFFFFFFFF DUP2 GT ISZERO PUSH2 0x14B0 JUMPI PUSH2 0x14AF PUSH2 0x1B9E JUMP JUMPDEST JUMPDEST PUSH1 0x40 MLOAD SWAP1 DUP1 DUP3 MSTORE DUP1 PUSH1 0x1F ADD PUSH1 0x1F NOT AND PUSH1 0x20 ADD DUP3 ADD PUSH1 0x40 MSTORE DUP1 ISZERO PUSH2 0x14E2 JUMPI DUP2 PUSH1 0x20 ADD PUSH1 0x1 DUP3 MUL DUP1 CALLDATASIZE DUP4 CALLDATACOPY DUP1 DUP3 ADD SWAP2 POP POP SWAP1 POP JUMPDEST POP SWAP1 POP JUMPDEST PUSH1 0x0 DUP6 EQ PUSH2 0x156F JUMPI PUSH1 0x1 DUP3 PUSH2 0x14FB SWAP2 SWAP1 PUSH2 0x2385 JUMP JUMPDEST SWAP2 POP PUSH1 0xA DUP6 PUSH2 0x150A SWAP2 SWAP1 PUSH2 0x293E JUMP JUMPDEST PUSH1 0x30 PUSH2 0x1516 SWAP2 SWAP1 PUSH2 0x23B9 JUMP JUMPDEST PUSH1 0xF8 SHL DUP2 DUP4 DUP2 MLOAD DUP2 LT PUSH2 0x152C JUMPI PUSH2 0x152B PUSH2 0x296F JUMP JUMPDEST JUMPDEST PUSH1 0x20 ADD ADD SWAP1 PUSH31 0xFFFFFFFFFFFFFFFFFFFFFFFFFFFFFFFFFFFFFFFFFFFFFFFFFFFFFFFFFFFFFF NOT AND SWAP1 DUP2 PUSH1 0x0 BYTE SWAP1 MSTORE8 POP PUSH1 0xA DUP6 PUSH2 0x1568 SWAP2 SWAP1 PUSH2 0x290D JUMP JUMPDEST SWAP5 POP PUSH2 0x14E6 JUMP JUMPDEST DUP1 SWAP4 POP POP POP POP JUMPDEST SWAP2 SWAP1 POP JUMP JUMPDEST PUSH2 0x1585 DUP4 DUP4 PUSH2 0x15F9 JUMP JUMPDEST PUSH2 0x1592 PUSH1 0x0 DUP5 DUP5 DUP5 PUSH2 0x1294 JUMP JUMPDEST PUSH2 0x15D1 JUMPI PUSH1 0x40 MLOAD PUSH32 0x8C379A000000000000000000000000000000000000000000000000000000000 DUP2 MSTORE PUSH1 0x4 ADD PUSH2 0x15C8 SWAP1 PUSH2 0x24CB JUMP JUMPDEST PUSH1 0x40 MLOAD DUP1 SWAP2 SUB SWAP1 REVERT JUMPDEST POP POP POP JUMP JUMPDEST PUSH1 0x0 DUP1 DUP3 PUSH20 0xFFFFFFFFFFFFFFFFFFFFFFFFFFFFFFFFFFFFFFFF AND EXTCODESIZE GT SWAP1 POP SWAP2 SWAP1 POP JUMP JUMPDEST PUSH1 0x0 PUSH20 0xFFFFFFFFFFFFFFFFFFFFFFFFFFFFFFFFFFFFFFFF AND DUP3 PUSH20 0xFFFFFFFFFFFFFFFFFFFFFFFFFFFFFFFFFFFFFFFF AND SUB PUSH2 0x1668 JUMPI PUSH1 0x40 MLOAD PUSH32 0x8C379A000000000000000000000000000000000000000000000000000000000 DUP2 MSTORE PUSH1 0x4 ADD PUSH2 0x165F SWAP1 PUSH2 0x29EA JUMP JUMPDEST PUSH1 0x40 MLOAD DUP1 SWAP2 SUB SWAP1 REVERT JUMPDEST PUSH2 0x1671 DUP2 PUSH2 0x121E JUMP JUMPDEST ISZERO PUSH2 0x16B1 JUMPI PUSH1 0x40 MLOAD PUSH32 0x8C379A000000000000000000000000000000000000000000000000000000000 DUP2 MSTORE PUSH1 0x4 ADD PUSH2 0x16A8 SWAP1 PUSH2 0x2A56 JUMP JUMPDEST PUSH1 0x40 MLOAD DUP1 SWAP2 SUB SWAP1 REVERT JUMPDEST PUSH2 0x16BD PUSH1 0x0 DUP4 DUP4 PUSH2 0x128A JUMP JUMPDEST PUSH1 0x1 PUSH1 0x3 PUSH1 0x0 DUP5 PUSH20 0xFFFFFFFFFFFFFFFFFFFFFFFFFFFFFFFFFFFFFFFF AND PUSH20 0xFFFFFFFFFFFFFFFFFFFFFFFFFFFFFFFFFFFFFFFF AND DUP2 MSTORE PUSH1 0x20 ADD SWAP1 DUP2 MSTORE PUSH1 0x20 ADD PUSH1 0x0 KECCAK256 PUSH1 0x0 DUP3 DUP3 SLOAD PUSH2 0x170D SWAP2 SWAP1 PUSH2 0x23B9 JUMP JUMPDEST SWAP3 POP POP DUP2 SWAP1 SSTORE POP DUP2 PUSH1 0x2 PUSH1 0x0 DUP4 DUP2 MSTORE PUSH1 0x20 ADD SWAP1 DUP2 MSTORE PUSH1 0x20 ADD PUSH1 0x0 KECCAK256 PUSH1 0x0 PUSH2 0x100 EXP DUP2 SLOAD DUP2 PUSH20 0xFFFFFFFFFFFFFFFFFFFFFFFFFFFFFFFFFFFFFFFF MUL NOT AND SWAP1 DUP4 PUSH20 0xFFFFFFFFFFFFFFFFFFFFFFFFFFFFFFFFFFFFFFFF AND MUL OR SWAP1 SSTORE POP DUP1 DUP3 PUSH20 0xFFFFFFFFFFFFFFFFFFFFFFFFFFFFFFFFFFFFFFFF AND PUSH1 0x0 PUSH20 0xFFFFFFFFFFFFFFFFFFFFFFFFFFFFFFFFFFFFFFFF AND PUSH32 0xDDF252AD1BE2C89B69C2B068FC378DAA952BA7F163C4A11628F55A4DF523B3EF PUSH1 0x40 MLOAD PUSH1 0x40 MLOAD DUP1 SWAP2 SUB SWAP1 LOG4 PUSH2 0x17CE PUSH1 0x0 DUP4 DUP4 PUSH2 0x128F JUMP JUMPDEST POP POP JUMP JUMPDEST PUSH1 0x0 PUSH1 0x40 MLOAD SWAP1 POP SWAP1 JUMP JUMPDEST PUSH1 0x0 DUP1 REVERT JUMPDEST PUSH1 0x0 DUP1 REVERT JUMPDEST PUSH1 0x0 PUSH32 0xFFFFFFFF00000000000000000000000000000000000000000000000000000000 DUP3 AND SWAP1 POP SWAP2 SWAP1 POP JUMP JUMPDEST PUSH2 0x181B DUP2 PUSH2 0x17E6 JUMP JUMPDEST DUP2 EQ PUSH2 0x1826 JUMPI PUSH1 0x0 DUP1 REVERT JUMPDEST POP JUMP JUMPDEST PUSH1 0x0 DUP2 CALLDATALOAD SWAP1 POP PUSH2 0x1838 DUP2 PUSH2 0x1812 JUMP JUMPDEST SWAP3 SWAP2 POP POP JUMP JUMPDEST PUSH1 0x0 PUSH1 0x20 DUP3 DUP5 SUB SLT ISZERO PUSH2 0x1854 JUMPI PUSH2 0x1853 PUSH2 0x17DC JUMP JUMPDEST JUMPDEST PUSH1 0x0 PUSH2 0x1862 DUP5 DUP3 DUP6 ADD PUSH2 0x1829 JUMP JUMPDEST SWAP2 POP POP SWAP3 SWAP2 POP POP JUMP JUMPDEST PUSH1 0x0 DUP2 ISZERO ISZERO SWAP1 POP SWAP2 SWAP1 POP JUMP JUMPDEST PUSH2 0x1880 DUP2 PUSH2 0x186B JUMP JUMPDEST DUP3 MSTORE POP POP JUMP JUMPDEST PUSH1 0x0 PUSH1 0x20 DUP3 ADD SWAP1 POP PUSH2 0x189B PUSH1 0x0 DUP4 ADD DUP5 PUSH2 0x1877 JUMP JUMPDEST SWAP3 SWAP2 POP POP JUMP JUMPDEST PUSH1 0x0 DUP2 MLOAD SWAP1 POP SWAP2 SWAP1 POP JUMP JUMPDEST PUSH1 0x0 DUP3 DUP3 MSTORE PUSH1 0x20 DUP3 ADD SWAP1 POP SWAP3 SWAP2 POP POP JUMP JUMPDEST PUSH1 0x0 JUMPDEST DUP4 DUP2 LT ISZERO PUSH2 0x18DB JUMPI DUP1 DUP3 ADD MLOAD DUP2 DUP5 ADD MSTORE PUSH1 0x20 DUP2 ADD SWAP1 POP PUSH2 0x18C0 JUMP JUMPDEST PUSH1 0x0 DUP5 DUP5 ADD MSTORE POP POP POP POP JUMP JUMPDEST PUSH1 0x0 PUSH1 0x1F NOT PUSH1 0x1F DUP4 ADD AND SWAP1 POP SWAP2 SWAP1 POP JUMP JUMPDEST PUSH1 0x0 PUSH2 0x1903 DUP3 PUSH2 0x18A1 JUMP JUMPDEST PUSH2 0x190D DUP2 DUP6 PUSH2 0x18AC JUMP JUMPDEST SWAP4 POP PUSH2 0x191D DUP2 DUP6 PUSH1 0x20 DUP7 ADD PUSH2 0x18BD JUMP JUMPDEST PUSH2 0x1926 DUP2 PUSH2 0x18E7 JUMP JUMPDEST DUP5 ADD SWAP2 POP POP SWAP3 SWAP2 POP POP JUMP JUMPDEST PUSH1 0x0 PUSH1 0x20 DUP3 ADD SWAP1 POP DUP2 DUP2 SUB PUSH1 0x0 DUP4 ADD MSTORE PUSH2 0x194B DUP2 DUP5 PUSH2 0x18F8 JUMP JUMPDEST SWAP1 POP SWAP3 SWAP2 POP POP JUMP JUMPDEST PUSH1 0x0 DUP2 SWAP1 POP SWAP2 SWAP1 POP JUMP JUMPDEST PUSH2 0x1966 DUP2 PUSH2 0x1953 JUMP JUMPDEST DUP2 EQ PUSH2 0x1971 JUMPI PUSH1 0x0 DUP1 REVERT JUMPDEST POP JUMP JUMPDEST PUSH1 0x0 DUP2 CALLDATALOAD SWAP1 POP PUSH2 0x1983 DUP2 PUSH2 0x195D JUMP JUMPDEST SWAP3 SWAP2 POP POP JUMP JUMPDEST PUSH1 0x0 PUSH1 0x20 DUP3 DUP5 SUB SLT ISZERO PUSH2 0x199F JUMPI PUSH2 0x199E PUSH2 0x17DC JUMP JUMPDEST JUMPDEST PUSH1 0x0 PUSH2 0x19AD DUP5 DUP3 DUP6 ADD PUSH2 0x1974 JUMP JUMPDEST SWAP2 POP POP SWAP3 SWAP2 POP POP JUMP JUMPDEST PUSH1 0x0 PUSH20 0xFFFFFFFFFFFFFFFFFFFFFFFFFFFFFFFFFFFFFFFF DUP3 AND SWAP1 POP SWAP2 SWAP1 POP JUMP JUMPDEST PUSH1 0x0 PUSH2 0x19E1 DUP3 PUSH2 0x19B6 JUMP JUMPDEST SWAP1 POP SWAP2 SWAP1 POP JUMP JUMPDEST PUSH2 0x19F1 DUP2 PUSH2 0x19D6 JUMP JUMPDEST DUP3 MSTORE POP POP JUMP JUMPDEST PUSH1 0x0 PUSH1 0x20 DUP3 ADD SWAP1 POP PUSH2 0x1A0C PUSH1 0x0 DUP4 ADD DUP5 PUSH2 0x19E8 JUMP JUMPDEST SWAP3 SWAP2 POP POP JUMP JUMPDEST PUSH2 0x1A1B DUP2 PUSH2 0x19D6 JUMP JUMPDEST DUP2 EQ PUSH2 0x1A26 JUMPI PUSH1 0x0 DUP1 REVERT JUMPDEST POP JUMP JUMPDEST PUSH1 0x0 DUP2 CALLDATALOAD SWAP1 POP PUSH2 0x1A38 DUP2 PUSH2 0x1A12 JUMP JUMPDEST SWAP3 SWAP2 POP POP JUMP JUMPDEST PUSH1 0x0 DUP1 PUSH1 0x40 DUP4 DUP6 SUB SLT ISZERO PUSH2 0x1A55 JUMPI PUSH2 0x1A54 PUSH2 0x17DC JUMP JUMPDEST JUMPDEST PUSH1 0x0 PUSH2 0x1A63 DUP6 DUP3 DUP7 ADD PUSH2 0x1A29 JUMP JUMPDEST SWAP3 POP POP PUSH1 0x20 PUSH2 0x1A74 DUP6 DUP3 DUP7 ADD PUSH2 0x1974 JUMP JUMPDEST SWAP2 POP POP SWAP3 POP SWAP3 SWAP1 POP JUMP JUMPDEST PUSH1 0x0 DUP1 PUSH1 0x0 PUSH1 0x60 DUP5 DUP7 SUB SLT ISZERO PUSH2 0x1A97 JUMPI PUSH2 0x1A96 PUSH2 0x17DC JUMP JUMPDEST JUMPDEST PUSH1 0x0 PUSH2 0x1AA5 DUP7 DUP3 DUP8 ADD PUSH2 0x1A29 JUMP JUMPDEST SWAP4 POP POP PUSH1 0x20 PUSH2 0x1AB6 DUP7 DUP3 DUP8 ADD PUSH2 0x1A29 JUMP JUMPDEST SWAP3 POP POP PUSH1 0x40 PUSH2 0x1AC7 DUP7 DUP3 DUP8 ADD PUSH2 0x1974 JUMP JUMPDEST SWAP2 POP POP SWAP3 POP SWAP3 POP SWAP3 JUMP JUMPDEST PUSH1 0x0 PUSH1 0x20 DUP3 DUP5 SUB SLT ISZERO PUSH2 0x1AE7 JUMPI PUSH2 0x1AE6 PUSH2 0x17DC JUMP JUMPDEST JUMPDEST PUSH1 0x0 PUSH2 0x1AF5 DUP5 DUP3 DUP6 ADD PUSH2 0x1A29 JUMP JUMPDEST SWAP2 POP POP SWAP3 SWAP2 POP POP JUMP JUMPDEST PUSH2 0x1B07 DUP2 PUSH2 0x1953 JUMP JUMPDEST DUP3 MSTORE POP POP JUMP JUMPDEST PUSH1 0x0 PUSH1 0x20 DUP3 ADD SWAP1 POP PUSH2 0x1B22 PUSH1 0x0 DUP4 ADD DUP5 PUSH2 0x1AFE JUMP JUMPDEST SWAP3 SWAP2 POP POP JUMP JUMPDEST PUSH2 0x1B31 DUP2 PUSH2 0x186B JUMP JUMPDEST DUP2 EQ PUSH2 0x1B3C JUMPI PUSH1 0x0 DUP1 REVERT JUMPDEST POP JUMP JUMPDEST PUSH1 0x0 DUP2 CALLDATALOAD SWAP1 POP PUSH2 0x1B4E DUP2 PUSH2 0x1B28 JUMP JUMPDEST SWAP3 SWAP2 POP POP JUMP JUMPDEST PUSH1 0x0 DUP1 PUSH1 0x40 DUP4 DUP6 SUB SLT ISZERO PUSH2 0x1B6B JUMPI PUSH2 0x1B6A PUSH2 0x17DC JUMP JUMPDEST JUMPDEST PUSH1 0x0 PUSH2 0x1B79 DUP6 DUP3 DUP7 ADD PUSH2 0x1A29 JUMP JUMPDEST SWAP3 POP POP PUSH1 0x20 PUSH2 0x1B8A DUP6 DUP3 DUP7 ADD PUSH2 0x1B3F JUMP JUMPDEST SWAP2 POP POP SWAP3 POP SWAP3 SWAP1 POP JUMP JUMPDEST PUSH1 0x0 DUP1 REVERT JUMPDEST PUSH1 0x0 DUP1 REVERT JUMPDEST PUSH32 0x4E487B7100000000000000000000000000000000000000000000000000000000 PUSH1 0x0 MSTORE PUSH1 0x41 PUSH1 0x4 MSTORE PUSH1 0x24 PUSH1 0x0 REVERT JUMPDEST PUSH2 0x1BD6 DUP3 PUSH2 0x18E7 JUMP JUMPDEST DUP2 ADD DUP2 DUP2 LT PUSH8 0xFFFFFFFFFFFFFFFF DUP3 GT OR ISZERO PUSH2 0x1BF5 JUMPI PUSH2 0x1BF4 PUSH2 0x1B9E JUMP JUMPDEST JUMPDEST DUP1 PUSH1 0x40 MSTORE POP POP POP JUMP JUMPDEST PUSH1 0x0 PUSH2 0x1C08 PUSH2 0x17D2 JUMP JUMPDEST SWAP1 POP PUSH2 0x1C14 DUP3 DUP3 PUSH2 0x1BCD JUMP JUMPDEST SWAP2 SWAP1 POP JUMP JUMPDEST PUSH1 0x0 PUSH8 0xFFFFFFFFFFFFFFFF DUP3 GT ISZERO PUSH2 0x1C34 JUMPI PUSH2 0x1C33 PUSH2 0x1B9E JUMP JUMPDEST JUMPDEST PUSH2 0x1C3D DUP3 PUSH2 0x18E7 JUMP JUMPDEST SWAP1 POP PUSH1 0x20 DUP2 ADD SWAP1 POP SWAP2 SWAP1 POP JUMP JUMPDEST DUP3 DUP2 DUP4 CALLDATACOPY PUSH1 0x0 DUP4 DUP4 ADD MSTORE POP POP POP JUMP JUMPDEST PUSH1 0x0 PUSH2 0x1C6C PUSH2 0x1C67 DUP5 PUSH2 0x1C19 JUMP JUMPDEST PUSH2 0x1BFE JUMP JUMPDEST SWAP1 POP DUP3 DUP2 MSTORE PUSH1 0x20 DUP2 ADD DUP5 DUP5 DUP5 ADD GT ISZERO PUSH2 0x1C88 JUMPI PUSH2 0x1C87 PUSH2 0x1B99 JUMP JUMPDEST JUMPDEST PUSH2 0x1C93 DUP5 DUP3 DUP6 PUSH2 0x1C4A JUMP JUMPDEST POP SWAP4 SWAP3 POP POP POP JUMP JUMPDEST PUSH1 0x0 DUP3 PUSH1 0x1F DUP4 ADD SLT PUSH2 0x1CB0 JUMPI PUSH2 0x1CAF PUSH2 0x1B94 JUMP JUMPDEST JUMPDEST DUP2 CALLDATALOAD PUSH2 0x1CC0 DUP5 DUP3 PUSH1 0x20 DUP7 ADD PUSH2 0x1C59 JUMP JUMPDEST SWAP2 POP POP SWAP3 SWAP2 POP POP JUMP JUMPDEST PUSH1 0x0 DUP1 PUSH1 0x0 DUP1 PUSH1 0x80 DUP6 DUP8 SUB SLT ISZERO PUSH2 0x1CE3 JUMPI PUSH2 0x1CE2 PUSH2 0x17DC JUMP JUMPDEST JUMPDEST PUSH1 0x0 PUSH2 0x1CF1 DUP8 DUP3 DUP9 ADD PUSH2 0x1A29 JUMP JUMPDEST SWAP5 POP POP PUSH1 0x20 PUSH2 0x1D02 DUP8 DUP3 DUP9 ADD PUSH2 0x1A29 JUMP JUMPDEST SWAP4 POP POP PUSH1 0x40 PUSH2 0x1D13 DUP8 DUP3 DUP9 ADD PUSH2 0x1974 JUMP JUMPDEST SWAP3 POP POP PUSH1 0x60 DUP6 ADD CALLDATALOAD PUSH8 0xFFFFFFFFFFFFFFFF DUP2 GT ISZERO PUSH2 0x1D34 JUMPI PUSH2 0x1D33 PUSH2 0x17E1 JUMP JUMPDEST JUMPDEST PUSH2 0x1D40 DUP8 DUP3 DUP9 ADD PUSH2 0x1C9B JUMP JUMPDEST SWAP2 POP POP SWAP3 SWAP6 SWAP2 SWAP5 POP SWAP3 POP JUMP JUMPDEST PUSH1 0x0 PUSH8 0xFFFFFFFFFFFFFFFF DUP3 GT ISZERO PUSH2 0x1D67 JUMPI PUSH2 0x1D66 PUSH2 0x1B9E JUMP JUMPDEST JUMPDEST PUSH2 0x1D70 DUP3 PUSH2 0x18E7 JUMP JUMPDEST SWAP1 POP PUSH1 0x20 DUP2 ADD SWAP1 POP SWAP2 SWAP1 POP JUMP JUMPDEST PUSH1 0x0 PUSH2 0x1D90 PUSH2 0x1D8B DUP5 PUSH2 0x1D4C JUMP JUMPDEST PUSH2 0x1BFE JUMP JUMPDEST SWAP1 POP DUP3 DUP2 MSTORE PUSH1 0x20 DUP2 ADD DUP5 DUP5 DUP5 ADD GT ISZERO PUSH2 0x1DAC JUMPI PUSH2 0x1DAB PUSH2 0x1B99 JUMP JUMPDEST JUMPDEST PUSH2 0x1DB7 DUP5 DUP3 DUP6 PUSH2 0x1C4A JUMP JUMPDEST POP SWAP4 SWAP3 POP POP POP JUMP JUMPDEST PUSH1 0x0 DUP3 PUSH1 0x1F DUP4 ADD SLT PUSH2 0x1DD4 JUMPI PUSH2 0x1DD3 PUSH2 0x1B94 JUMP JUMPDEST JUMPDEST DUP2 CALLDATALOAD PUSH2 0x1DE4 DUP5 DUP3 PUSH1 0x20 DUP7 ADD PUSH2 0x1D7D JUMP JUMPDEST SWAP2 POP POP SWAP3 SWAP2 POP POP JUMP JUMPDEST PUSH1 0x0 PUSH1 0x20 DUP3 DUP5 SUB SLT ISZERO PUSH2 0x1E03 JUMPI PUSH2 0x1E02 PUSH2 0x17DC JUMP JUMPDEST JUMPDEST PUSH1 0x0 DUP3 ADD CALLDATALOAD PUSH8 0xFFFFFFFFFFFFFFFF DUP2 GT ISZERO PUSH2 0x1E21 JUMPI PUSH2 0x1E20 PUSH2 0x17E1 JUMP JUMPDEST JUMPDEST PUSH2 0x1E2D DUP5 DUP3 DUP6 ADD PUSH2 0x1DBF JUMP JUMPDEST SWAP2 POP POP SWAP3 SWAP2 POP POP JUMP JUMPDEST PUSH1 0x0 DUP1 PUSH1 0x40 DUP4 DUP6 SUB SLT ISZERO PUSH2 0x1E4D JUMPI PUSH2 0x1E4C PUSH2 0x17DC JUMP JUMPDEST JUMPDEST PUSH1 0x0 PUSH2 0x1E5B DUP6 DUP3 DUP7 ADD PUSH2 0x1A29 JUMP JUMPDEST SWAP3 POP POP PUSH1 0x20 PUSH2 0x1E6C DUP6 DUP3 DUP7 ADD PUSH2 0x1A29 JUMP JUMPDEST SWAP2 POP POP SWAP3 POP SWAP3 SWAP1 POP JUMP JUMPDEST PUSH32 0x4E487B7100000000000000000000000000000000000000000000000000000000 PUSH1 0x0 MSTORE PUSH1 0x22 PUSH1 0x4 MSTORE PUSH1 0x24 PUSH1 0x0 REVERT JUMPDEST PUSH1 0x0 PUSH1 0x2 DUP3 DIV SWAP1 POP PUSH1 0x1 DUP3 AND DUP1 PUSH2 0x1EBD JUMPI PUSH1 0x7F DUP3 AND SWAP2 POP JUMPDEST PUSH1 0x20 DUP3 LT DUP2 SUB PUSH2 0x1ED0 JUMPI PUSH2 0x1ECF PUSH2 0x1E76 JUMP JUMPDEST JUMPDEST POP SWAP2 SWAP1 POP JUMP JUMPDEST PUSH32 0x4552433732313A20617070726F76616C20746F2063757272656E74206F776E65 PUSH1 0x0 DUP3 ADD MSTORE PUSH32 0x7200000000000000000000000000000000000000000000000000000000000000 PUSH1 0x20 DUP3 ADD MSTORE POP JUMP JUMPDEST PUSH1 0x0 PUSH2 0x1F32 PUSH1 0x21 DUP4 PUSH2 0x18AC JUMP JUMPDEST SWAP2 POP PUSH2 0x1F3D DUP3 PUSH2 0x1ED6 JUMP JUMPDEST PUSH1 0x40 DUP3 ADD SWAP1 POP SWAP2 SWAP1 POP JUMP JUMPDEST PUSH1 0x0 PUSH1 0x20 DUP3 ADD SWAP1 POP DUP2 DUP2 SUB PUSH1 0x0 DUP4 ADD MSTORE PUSH2 0x1F61 DUP2 PUSH2 0x1F25 JUMP JUMPDEST SWAP1 POP SWAP2 SWAP1 POP JUMP JUMPDEST PUSH32 0x4552433732313A20617070726F76652063616C6C6572206973206E6F7420746F PUSH1 0x0 DUP3 ADD MSTORE PUSH32 0x6B656E206F776E6572206E6F7220617070726F76656420666F7220616C6C0000 PUSH1 0x20 DUP3 ADD MSTORE POP JUMP JUMPDEST PUSH1 0x0 PUSH2 0x1FC4 PUSH1 0x3E DUP4 PUSH2 0x18AC JUMP JUMPDEST SWAP2 POP PUSH2 0x1FCF DUP3 PUSH2 0x1F68 JUMP JUMPDEST PUSH1 0x40 DUP3 ADD SWAP1 POP SWAP2 SWAP1 POP JUMP JUMPDEST PUSH1 0x0 PUSH1 0x20 DUP3 ADD SWAP1 POP DUP2 DUP2 SUB PUSH1 0x0 DUP4 ADD MSTORE PUSH2 0x1FF3 DUP2 PUSH2 0x1FB7 JUMP JUMPDEST SWAP1 POP SWAP2 SWAP1 POP JUMP JUMPDEST PUSH32 0x4552433732313A2063616C6C6572206973206E6F7420746F6B656E206F776E65 PUSH1 0x0 DUP3 ADD MSTORE PUSH32 0x72206E6F7220617070726F766564000000000000000000000000000000000000 PUSH1 0x20 DUP3 ADD MSTORE POP JUMP JUMPDEST PUSH1 0x0 PUSH2 0x2056 PUSH1 0x2E DUP4 PUSH2 0x18AC JUMP JUMPDEST SWAP2 POP PUSH2 0x2061 DUP3 PUSH2 0x1FFA JUMP JUMPDEST PUSH1 0x40 DUP3 ADD SWAP1 POP SWAP2 SWAP1 POP JUMP JUMPDEST PUSH1 0x0 PUSH1 0x20 DUP3 ADD SWAP1 POP DUP2 DUP2 SUB PUSH1 0x0 DUP4 ADD MSTORE PUSH2 0x2085 DUP2 PUSH2 0x2049 JUMP JUMPDEST SWAP1 POP SWAP2 SWAP1 POP JUMP JUMPDEST PUSH32 0x4552433732313A20696E76616C696420746F6B656E2049440000000000000000 PUSH1 0x0 DUP3 ADD MSTORE POP JUMP JUMPDEST PUSH1 0x0 PUSH2 0x20C2 PUSH1 0x18 DUP4 PUSH2 0x18AC JUMP JUMPDEST SWAP2 POP PUSH2 0x20CD DUP3 PUSH2 0x208C JUMP JUMPDEST PUSH1 0x20 DUP3 ADD SWAP1 POP SWAP2 SWAP1 POP JUMP JUMPDEST PUSH1 0x0 PUSH1 0x20 DUP3 ADD SWAP1 POP DUP2 DUP2 SUB PUSH1 0x0 DUP4 ADD MSTORE PUSH2 0x20F1 DUP2 PUSH2 0x20B5 JUMP JUMPDEST SWAP1 POP SWAP2 SWAP1 POP JUMP JUMPDEST PUSH32 0x4552433732313A2061646472657373207A65726F206973206E6F742061207661 PUSH1 0x0 DUP3 ADD MSTORE PUSH32 0x6C6964206F776E65720000000000000000000000000000000000000000000000 PUSH1 0x20 DUP3 ADD MSTORE POP JUMP JUMPDEST PUSH1 0x0 PUSH2 0x2154 PUSH1 0x29 DUP4 PUSH2 0x18AC JUMP JUMPDEST SWAP2 POP PUSH2 0x215F DUP3 PUSH2 0x20F8 JUMP JUMPDEST PUSH1 0x40 DUP3 ADD SWAP1 POP SWAP2 SWAP1 POP JUMP JUMPDEST PUSH1 0x0 PUSH1 0x20 DUP3 ADD SWAP1 POP DUP2 DUP2 SUB PUSH1 0x0 DUP4 ADD MSTORE PUSH2 0x2183 DUP2 PUSH2 0x2147 JUMP JUMPDEST SWAP1 POP SWAP2 SWAP1 POP JUMP JUMPDEST PUSH1 0x0 DUP2 SWAP1 POP SWAP3 SWAP2 POP POP JUMP JUMPDEST PUSH1 0x0 PUSH2 0x21A0 DUP3 PUSH2 0x18A1 JUMP JUMPDEST PUSH2 0x21AA DUP2 DUP6 PUSH2 0x218A JUMP JUMPDEST SWAP4 POP PUSH2 0x21BA DUP2 DUP6 PUSH1 0x20 DUP7 ADD PUSH2 0x18BD JUMP JUMPDEST DUP1 DUP5 ADD SWAP2 POP POP SWAP3 SWAP2 POP POP JUMP JUMPDEST PUSH1 0x0 PUSH2 0x21D2 DUP3 DUP6 PUSH2 0x2195 JUMP JUMPDEST SWAP2 POP PUSH2 0x21DE DUP3 DUP5 PUSH2 0x2195 JUMP JUMPDEST SWAP2 POP DUP2 SWAP1 POP SWAP4 SWAP3 POP POP POP JUMP JUMPDEST PUSH32 0x4E487B7100000000000000000000000000000000000000000000000000000000 PUSH1 0x0 MSTORE PUSH1 0x11 PUSH1 0x4 MSTORE PUSH1 0x24 PUSH1 0x0 REVERT JUMPDEST PUSH1 0x0 PUSH2 0x2224 DUP3 PUSH2 0x1953 JUMP JUMPDEST SWAP2 POP PUSH32 0xFFFFFFFFFFFFFFFFFFFFFFFFFFFFFFFFFFFFFFFFFFFFFFFFFFFFFFFFFFFFFFFF DUP3 SUB PUSH2 0x2256 JUMPI PUSH2 0x2255 PUSH2 0x21EA JUMP JUMPDEST JUMPDEST PUSH1 0x1 DUP3 ADD SWAP1 POP SWAP2 SWAP1 POP JUMP JUMPDEST PUSH32 0x4552433732313A207472616E736665722066726F6D20696E636F727265637420 PUSH1 0x0 DUP3 ADD MSTORE PUSH32 0x6F776E6572000000000000000000000000000000000000000000000000000000 PUSH1 0x20 DUP3 ADD MSTORE POP JUMP JUMPDEST PUSH1 0x0 PUSH2 0x22BD PUSH1 0x25 DUP4 PUSH2 0x18AC JUMP JUMPDEST SWAP2 POP PUSH2 0x22C8 DUP3 PUSH2 0x2261 JUMP JUMPDEST PUSH1 0x40 DUP3 ADD SWAP1 POP SWAP2 SWAP1 POP JUMP JUMPDEST PUSH1 0x0 PUSH1 0x20 DUP3 ADD SWAP1 POP DUP2 DUP2 SUB PUSH1 0x0 DUP4 ADD MSTORE PUSH2 0x22EC DUP2 PUSH2 0x22B0 JUMP JUMPDEST SWAP1 POP SWAP2 SWAP1 POP JUMP JUMPDEST PUSH32 0x4552433732313A207472616E7366657220746F20746865207A65726F20616464 PUSH1 0x0 DUP3 ADD MSTORE PUSH32 0x7265737300000000000000000000000000000000000000000000000000000000 PUSH1 0x20 DUP3 ADD MSTORE POP JUMP JUMPDEST PUSH1 0x0 PUSH2 0x234F PUSH1 0x24 DUP4 PUSH2 0x18AC JUMP JUMPDEST SWAP2 POP PUSH2 0x235A DUP3 PUSH2 0x22F3 JUMP JUMPDEST PUSH1 0x40 DUP3 ADD SWAP1 POP SWAP2 SWAP1 POP JUMP JUMPDEST PUSH1 0x0 PUSH1 0x20 DUP3 ADD SWAP1 POP DUP2 DUP2 SUB PUSH1 0x0 DUP4 ADD MSTORE PUSH2 0x237E DUP2 PUSH2 0x2342 JUMP JUMPDEST SWAP1 POP SWAP2 SWAP1 POP JUMP JUMPDEST PUSH1 0x0 PUSH2 0x2390 DUP3 PUSH2 0x1953 JUMP JUMPDEST SWAP2 POP PUSH2 0x239B DUP4 PUSH2 0x1953 JUMP JUMPDEST SWAP3 POP DUP3 DUP3 SUB SWAP1 POP DUP2 DUP2 GT ISZERO PUSH2 0x23B3 JUMPI PUSH2 0x23B2 PUSH2 0x21EA JUMP JUMPDEST JUMPDEST SWAP3 SWAP2 POP POP JUMP JUMPDEST PUSH1 0x0 PUSH2 0x23C4 DUP3 PUSH2 0x1953 JUMP JUMPDEST SWAP2 POP PUSH2 0x23CF DUP4 PUSH2 0x1953 JUMP JUMPDEST SWAP3 POP DUP3 DUP3 ADD SWAP1 POP DUP1 DUP3 GT ISZERO PUSH2 0x23E7 JUMPI PUSH2 0x23E6 PUSH2 0x21EA JUMP JUMPDEST JUMPDEST SWAP3 SWAP2 POP POP JUMP JUMPDEST PUSH32 0x4552433732313A20617070726F766520746F2063616C6C657200000000000000 PUSH1 0x0 DUP3 ADD MSTORE POP JUMP JUMPDEST PUSH1 0x0 PUSH2 0x2423 PUSH1 0x19 DUP4 PUSH2 0x18AC JUMP JUMPDEST SWAP2 POP PUSH2 0x242E DUP3 PUSH2 0x23ED JUMP JUMPDEST PUSH1 0x20 DUP3 ADD SWAP1 POP SWAP2 SWAP1 POP JUMP JUMPDEST PUSH1 0x0 PUSH1 0x20 DUP3 ADD SWAP1 POP DUP2 DUP2 SUB PUSH1 0x0 DUP4 ADD MSTORE PUSH2 0x2452 DUP2 PUSH2 0x2416 JUMP JUMPDEST SWAP1 POP SWAP2 SWAP1 POP JUMP JUMPDEST PUSH32 0x4552433732313A207472616E7366657220746F206E6F6E204552433732315265 PUSH1 0x0 DUP3 ADD MSTORE PUSH32 0x63656976657220696D706C656D656E7465720000000000000000000000000000 PUSH1 0x20 DUP3 ADD MSTORE POP JUMP JUMPDEST PUSH1 0x0 PUSH2 0x24B5 PUSH1 0x32 DUP4 PUSH2 0x18AC JUMP JUMPDEST SWAP2 POP PUSH2 0x24C0 DUP3 PUSH2 0x2459 JUMP JUMPDEST PUSH1 0x40 DUP3 ADD SWAP1 POP SWAP2 SWAP1 POP JUMP JUMPDEST PUSH1 0x0 PUSH1 0x20 DUP3 ADD SWAP1 POP DUP2 DUP2 SUB PUSH1 0x0 DUP4 ADD MSTORE PUSH2 0x24E4 DUP2 PUSH2 0x24A8 JUMP JUMPDEST SWAP1 POP SWAP2 SWAP1 POP JUMP JUMPDEST PUSH32 0x45524337323155524953746F726167653A2055524920736574206F66206E6F6E PUSH1 0x0 DUP3 ADD MSTORE PUSH32 0x6578697374656E7420746F6B656E000000000000000000000000000000000000 PUSH1 0x20 DUP3 ADD MSTORE POP JUMP JUMPDEST PUSH1 0x0 PUSH2 0x2547 PUSH1 0x2E DUP4 PUSH2 0x18AC JUMP JUMPDEST SWAP2 POP PUSH2 0x2552 DUP3 PUSH2 0x24EB JUMP JUMPDEST PUSH1 0x40 DUP3 ADD SWAP1 POP SWAP2 SWAP1 POP JUMP JUMPDEST PUSH1 0x0 PUSH1 0x20 DUP3 ADD SWAP1 POP DUP2 DUP2 SUB PUSH1 0x0 DUP4 ADD MSTORE PUSH2 0x2576 DUP2 PUSH2 0x253A JUMP JUMPDEST SWAP1 POP SWAP2 SWAP1 POP JUMP JUMPDEST PUSH1 0x0 DUP2 SWAP1 POP DUP2 PUSH1 0x0 MSTORE PUSH1 0x20 PUSH1 0x0 KECCAK256 SWAP1 POP SWAP2 SWAP1 POP JUMP JUMPDEST PUSH1 0x0 PUSH1 0x20 PUSH1 0x1F DUP4 ADD DIV SWAP1 POP SWAP2 SWAP1 POP JUMP JUMPDEST PUSH1 0x0 DUP3 DUP3 SHL SWAP1 POP SWAP3 SWAP2 POP POP JUMP JUMPDEST PUSH1 0x0 PUSH1 0x8 DUP4 MUL PUSH2 0x25DF PUSH32 0xFFFFFFFFFFFFFFFFFFFFFFFFFFFFFFFFFFFFFFFFFFFFFFFFFFFFFFFFFFFFFFFF DUP3 PUSH2 0x25A2 JUMP JUMPDEST PUSH2 0x25E9 DUP7 DUP4 PUSH2 0x25A2 JUMP JUMPDEST SWAP6 POP DUP1 NOT DUP5 AND SWAP4 POP DUP1 DUP7 AND DUP5 OR SWAP3 POP POP POP SWAP4 SWAP3 POP POP POP JUMP JUMPDEST PUSH1 0x0 DUP2 SWAP1 POP SWAP2 SWAP1 POP JUMP JUMPDEST PUSH1 0x0 PUSH2 0x2626 PUSH2 0x2621 PUSH2 0x261C DUP5 PUSH2 0x1953 JUMP JUMPDEST PUSH2 0x2601 JUMP JUMPDEST PUSH2 0x1953 JUMP JUMPDEST SWAP1 POP SWAP2 SWAP1 POP JUMP JUMPDEST PUSH1 0x0 DUP2 SWAP1 POP SWAP2 SWAP1 POP JUMP JUMPDEST PUSH2 0x2640 DUP4 PUSH2 0x260B JUMP JUMPDEST PUSH2 0x2654 PUSH2 0x264C DUP3 PUSH2 0x262D JUMP JUMPDEST DUP5 DUP5 SLOAD PUSH2 0x25AF JUMP JUMPDEST DUP3 SSTORE POP POP POP POP JUMP JUMPDEST PUSH1 0x0 SWAP1 JUMP JUMPDEST PUSH2 0x2669 PUSH2 0x265C JUMP JUMPDEST PUSH2 0x2674 DUP2 DUP5 DUP5 PUSH2 0x2637 JUMP JUMPDEST POP POP POP JUMP JUMPDEST JUMPDEST DUP2 DUP2 LT ISZERO PUSH2 0x2698 JUMPI PUSH2 0x268D PUSH1 0x0 DUP3 PUSH2 0x2661 JUMP JUMPDEST PUSH1 0x1 DUP2 ADD SWAP1 POP PUSH2 0x267A JUMP JUMPDEST POP POP JUMP JUMPDEST PUSH1 0x1F DUP3 GT ISZERO PUSH2 0x26DD JUMPI PUSH2 0x26AE DUP2 PUSH2 0x257D JUMP JUMPDEST PUSH2 0x26B7 DUP5 PUSH2 0x2592 JUMP JUMPDEST DUP2 ADD PUSH1 0x20 DUP6 LT ISZERO PUSH2 0x26C6 JUMPI DUP2 SWAP1 POP JUMPDEST PUSH2 0x26DA PUSH2 0x26D2 DUP6 PUSH2 0x2592 JUMP JUMPDEST DUP4 ADD DUP3 PUSH2 0x2679 JUMP JUMPDEST POP POP JUMPDEST POP POP POP JUMP JUMPDEST PUSH1 0x0 DUP3 DUP3 SHR SWAP1 POP SWAP3 SWAP2 POP POP JUMP JUMPDEST PUSH1 0x0 PUSH2 0x2700 PUSH1 0x0 NOT DUP5 PUSH1 0x8 MUL PUSH2 0x26E2 JUMP JUMPDEST NOT DUP1 DUP4 AND SWAP2 POP POP SWAP3 SWAP2 POP POP JUMP JUMPDEST PUSH1 0x0 PUSH2 0x2719 DUP4 DUP4 PUSH2 0x26EF JUMP JUMPDEST SWAP2 POP DUP3 PUSH1 0x2 MUL DUP3 OR SWAP1 POP SWAP3 SWAP2 POP POP JUMP JUMPDEST PUSH2 0x2732 DUP3 PUSH2 0x18A1 JUMP JUMPDEST PUSH8 0xFFFFFFFFFFFFFFFF DUP2 GT ISZERO PUSH2 0x274B JUMPI PUSH2 0x274A PUSH2 0x1B9E JUMP JUMPDEST JUMPDEST PUSH2 0x2755 DUP3 SLOAD PUSH2 0x1EA5 JUMP JUMPDEST PUSH2 0x2760 DUP3 DUP3 DUP6 PUSH2 0x269C JUMP JUMPDEST PUSH1 0x0 PUSH1 0x20 SWAP1 POP PUSH1 0x1F DUP4 GT PUSH1 0x1 DUP2 EQ PUSH2 0x2793 JUMPI PUSH1 0x0 DUP5 ISZERO PUSH2 0x2781 JUMPI DUP3 DUP8 ADD MLOAD SWAP1 POP JUMPDEST PUSH2 0x278B DUP6 DUP3 PUSH2 0x270D JUMP JUMPDEST DUP7 SSTORE POP PUSH2 0x27F3 JUMP JUMPDEST PUSH1 0x1F NOT DUP5 AND PUSH2 0x27A1 DUP7 PUSH2 0x257D JUMP JUMPDEST PUSH1 0x0 JUMPDEST DUP3 DUP2 LT ISZERO PUSH2 0x27C9 JUMPI DUP5 DUP10 ADD MLOAD DUP3 SSTORE PUSH1 0x1 DUP3 ADD SWAP2 POP PUSH1 0x20 DUP6 ADD SWAP5 POP PUSH1 0x20 DUP2 ADD SWAP1 POP PUSH2 0x27A4 JUMP JUMPDEST DUP7 DUP4 LT ISZERO PUSH2 0x27E6 JUMPI DUP5 DUP10 ADD MLOAD PUSH2 0x27E2 PUSH1 0x1F DUP10 AND DUP3 PUSH2 0x26EF JUMP JUMPDEST DUP4 SSTORE POP JUMPDEST PUSH1 0x1 PUSH1 0x2 DUP9 MUL ADD DUP9 SSTORE POP POP POP JUMPDEST POP POP POP POP POP POP JUMP JUMPDEST PUSH1 0x0 DUP2 MLOAD SWAP1 POP SWAP2 SWAP1 POP JUMP JUMPDEST PUSH1 0x0 DUP3 DUP3 MSTORE PUSH1 0x20 DUP3 ADD SWAP1 POP SWAP3 SWAP2 POP POP JUMP JUMPDEST PUSH1 0x0 PUSH2 0x2822 DUP3 PUSH2 0x27FB JUMP JUMPDEST PUSH2 0x282C DUP2 DUP6 PUSH2 0x2806 JUMP JUMPDEST SWAP4 POP PUSH2 0x283C DUP2 DUP6 PUSH1 0x20 DUP7 ADD PUSH2 0x18BD JUMP JUMPDEST PUSH2 0x2845 DUP2 PUSH2 0x18E7 JUMP JUMPDEST DUP5 ADD SWAP2 POP POP SWAP3 SWAP2 POP POP JUMP JUMPDEST PUSH1 0x0 PUSH1 0x80 DUP3 ADD SWAP1 POP PUSH2 0x2865 PUSH1 0x0 DUP4 ADD DUP8 PUSH2 0x19E8 JUMP JUMPDEST PUSH2 0x2872 PUSH1 0x20 DUP4 ADD DUP7 PUSH2 0x19E8 JUMP JUMPDEST PUSH2 0x287F PUSH1 0x40 DUP4 ADD DUP6 PUSH2 0x1AFE JUMP JUMPDEST DUP2 DUP2 SUB PUSH1 0x60 DUP4 ADD MSTORE PUSH2 0x2891 DUP2 DUP5 PUSH2 0x2817 JUMP JUMPDEST SWAP1 POP SWAP6 SWAP5 POP POP POP POP POP JUMP JUMPDEST PUSH1 0x0 DUP2 MLOAD SWAP1 POP PUSH2 0x28AB DUP2 PUSH2 0x1812 JUMP JUMPDEST SWAP3 SWAP2 POP POP JUMP JUMPDEST PUSH1 0x0 PUSH1 0x20 DUP3 DUP5 SUB SLT ISZERO PUSH2 0x28C7 JUMPI PUSH2 0x28C6 PUSH2 0x17DC JUMP JUMPDEST JUMPDEST PUSH1 0x0 PUSH2 0x28D5 DUP5 DUP3 DUP6 ADD PUSH2 0x289C JUMP JUMPDEST SWAP2 POP POP SWAP3 SWAP2 POP POP JUMP JUMPDEST PUSH32 0x4E487B7100000000000000000000000000000000000000000000000000000000 PUSH1 0x0 MSTORE PUSH1 0x12 PUSH1 0x4 MSTORE PUSH1 0x24 PUSH1 0x0 REVERT JUMPDEST PUSH1 0x0 PUSH2 0x2918 DUP3 PUSH2 0x1953 JUMP JUMPDEST SWAP2 POP PUSH2 0x2923 DUP4 PUSH2 0x1953 JUMP JUMPDEST SWAP3 POP DUP3 PUSH2 0x2933 JUMPI PUSH2 0x2932 PUSH2 0x28DE JUMP JUMPDEST JUMPDEST DUP3 DUP3 DIV SWAP1 POP SWAP3 SWAP2 POP POP JUMP JUMPDEST PUSH1 0x0 PUSH2 0x2949 DUP3 PUSH2 0x1953 JUMP JUMPDEST SWAP2 POP PUSH2 0x2954 DUP4 PUSH2 0x1953 JUMP JUMPDEST SWAP3 POP DUP3 PUSH2 0x2964 JUMPI PUSH2 0x2963 PUSH2 0x28DE JUMP JUMPDEST JUMPDEST DUP3 DUP3 MOD SWAP1 POP SWAP3 SWAP2 POP POP JUMP JUMPDEST PUSH32 0x4E487B7100000000000000000000000000000000000000000000000000000000 PUSH1 0x0 MSTORE PUSH1 0x32 PUSH1 0x4 MSTORE PUSH1 0x24 PUSH1 0x0 REVERT JUMPDEST PUSH32 0x4552433732313A206D696E7420746F20746865207A65726F2061646472657373 PUSH1 0x0 DUP3 ADD MSTORE POP JUMP JUMPDEST PUSH1 0x0 PUSH2 0x29D4 PUSH1 0x20 DUP4 PUSH2 0x18AC JUMP JUMPDEST SWAP2 POP PUSH2 0x29DF DUP3 PUSH2 0x299E JUMP JUMPDEST PUSH1 0x20 DUP3 ADD SWAP1 POP SWAP2 SWAP1 POP JUMP JUMPDEST PUSH1 0x0 PUSH1 0x20 DUP3 ADD SWAP1 POP DUP2 DUP2 SUB PUSH1 0x0 DUP4 ADD MSTORE PUSH2 0x2A03 DUP2 PUSH2 0x29C7 JUMP JUMPDEST SWAP1 POP SWAP2 SWAP1 POP JUMP JUMPDEST PUSH32 0x4552433732313A20746F6B656E20616C7265616479206D696E74656400000000 PUSH1 0x0 DUP3 ADD MSTORE POP JUMP JUMPDEST PUSH1 0x0 PUSH2 0x2A40 PUSH1 0x1C DUP4 PUSH2 0x18AC JUMP JUMPDEST SWAP2 POP PUSH2 0x2A4B DUP3 PUSH2 0x2A0A JUMP JUMPDEST PUSH1 0x20 DUP3 ADD SWAP1 POP SWAP2 SWAP1 POP JUMP JUMPDEST PUSH1 0x0 PUSH1 0x20 DUP3 ADD SWAP1 POP DUP2 DUP2 SUB PUSH1 0x0 DUP4 ADD MSTORE PUSH2 0x2A6F DUP2 PUSH2 0x2A33 JUMP JUMPDEST SWAP1 POP SWAP2 SWAP1 POP JUMP INVALID LOG2 PUSH5 0x6970667358 0x22 SLT KECCAK256 0xF 0xD2 SWAP8 DUP8 0x1F 0xD5 DUP5 0xED BYTE DUP5 DIFFICULTY PUSH9 0x91AE92B067377E0328 MSTORE8 LOG3 RETURN LOG1 0xCB 0x4B MSTORE8 SWAP13 LOG1 0x2F BYTE PUSH5 0x736F6C6343 STOP ADDMOD LT STOP CALLER "
    },
    "gasEstimates": {
      "creation": {
        "codeDepositCost": "2184800",
        "executionCost": "infinite",
        "totalCost": "infinite"
      },
      "external": {
        "approve(address,uint256)": "infinite",
        "balanceOf(address)": "2899",
        "getApproved(uint256)": "5257",
        "isApprovedForAll(address,address)": "infinite",
        "mint(string)": "infinite",
        "name()": "infinite",
        "ownerOf(uint256)": "3045",
        "safeTransferFrom(address,address,uint256)": "infinite",
        "safeTransferFrom(address,address,uint256,bytes)": "infinite",
        "setApprovalForAll(address,bool)": "infinite",
        "supportsInterface(bytes4)": "797",
        "symbol()": "infinite",
        "tokenCount()": "2496",
        "tokenURI(uint256)": "infinite",
        "transferFrom(address,address,uint256)": "infinite"
      }
    },
    "methodIdentifiers": {
      "approve(address,uint256)": "095ea7b3",
      "balanceOf(address)": "70a08231",
      "getApproved(uint256)": "081812fc",
      "isApprovedForAll(address,address)": "e985e9c5",
      "mint(string)": "d85d3d27",
      "name()": "06fdde03",
      "ownerOf(uint256)": "6352211e",
      "safeTransferFrom(address,address,uint256)": "42842e0e",
      "safeTransferFrom(address,address,uint256,bytes)": "b88d4fde",
      "setApprovalForAll(address,bool)": "a22cb465",
      "supportsInterface(bytes4)": "01ffc9a7",
      "symbol()": "95d89b41",
      "tokenCount()": "9f181b5e",
      "tokenURI(uint256)": "c87b56dd",
      "transferFrom(address,address,uint256)": "23b872dd"
    }
  },
  "abi": [
    {
      "inputs": [],
      "stateMutability": "nonpayable",
      "type": "constructor"
    },
    {
      "anonymous": false,
      "inputs": [
        {
          "indexed": true,
          "internalType": "address",
          "name": "owner",
          "type": "address"
        },
        {
          "indexed": true,
          "internalType": "address",
          "name": "approved",
          "type": "address"
        },
        {
          "indexed": true,
          "internalType": "uint256",
          "name": "tokenId",
          "type": "uint256"
        }
      ],
      "name": "Approval",
      "type": "event"
    },
    {
      "anonymous": false,
      "inputs": [
        {
          "indexed": true,
          "internalType": "address",
          "name": "owner",
          "type": "address"
        },
        {
          "indexed": true,
          "internalType": "address",
          "name": "operator",
          "type": "address"
        },
        {
          "indexed": false,
          "internalType": "bool",
          "name": "approved",
          "type": "bool"
        }
      ],
      "name": "ApprovalForAll",
      "type": "event"
    },
    {
      "anonymous": false,
      "inputs": [
        {
          "indexed": true,
          "internalType": "address",
          "name": "from",
          "type": "address"
        },
        {
          "indexed": true,
          "internalType": "address",
          "name": "to",
          "type": "address"
        },
        {
          "indexed": true,
          "internalType": "uint256",
          "name": "tokenId",
          "type": "uint256"
        }
      ],
      "name": "Transfer",
      "type": "event"
    },
    {
      "inputs": [
        {
          "internalType": "address",
          "name": "to",
          "type": "address"
        },
        {
          "internalType": "uint256",
          "name": "tokenId",
          "type": "uint256"
        }
      ],
      "name": "approve",
      "outputs": [],
      "stateMutability": "nonpayable",
      "type": "function"
    },
    {
      "inputs": [
        {
          "internalType": "address",
          "name": "owner",
          "type": "address"
        }
      ],
      "name": "balanceOf",
      "outputs": [
        {
          "internalType": "uint256",
          "name": "",
          "type": "uint256"
        }
      ],
      "stateMutability": "view",
      "type": "function"
    },
    {
      "inputs": [
        {
          "internalType": "uint256",
          "name": "tokenId",
          "type": "uint256"
        }
      ],
      "name": "getApproved",
      "outputs": [
        {
          "internalType": "address",
          "name": "",
          "type": "address"
        }
      ],
      "stateMutability": "view",
      "type": "function"
    },
    {
      "inputs": [
        {
          "internalType": "address",
          "name": "owner",
          "type": "address"
        },
        {
          "internalType": "address",
          "name": "operator",
          "type": "address"
        }
      ],
      "name": "isApprovedForAll",
      "outputs": [
        {
          "internalType": "bool",
          "name": "",
          "type": "bool"
        }
      ],
      "stateMutability": "view",
      "type": "function"
    },
    {
      "inputs": [
        {
          "internalType": "string",
          "name": "_tokenURI",
          "type": "string"
        }
      ],
      "name": "mint",
      "outputs": [
        {
          "internalType": "uint256",
          "name": "",
          "type": "uint256"
        }
      ],
      "stateMutability": "nonpayable",
      "type": "function"
    },
    {
      "inputs": [],
      "name": "name",
      "outputs": [
        {
          "internalType": "string",
          "name": "",
          "type": "string"
        }
      ],
      "stateMutability": "view",
      "type": "function"
    },
    {
      "inputs": [
        {
          "internalType": "uint256",
          "name": "tokenId",
          "type": "uint256"
        }
      ],
      "name": "ownerOf",
      "outputs": [
        {
          "internalType": "address",
          "name": "",
          "type": "address"
        }
      ],
      "stateMutability": "view",
      "type": "function"
    },
    {
      "inputs": [
        {
          "internalType": "address",
          "name": "from",
          "type": "address"
        },
        {
          "internalType": "address",
          "name": "to",
          "type": "address"
        },
        {
          "internalType": "uint256",
          "name": "tokenId",
          "type": "uint256"
        }
      ],
      "name": "safeTransferFrom",
      "outputs": [],
      "stateMutability": "nonpayable",
      "type": "function"
    },
    {
      "inputs": [
        {
          "internalType": "address",
          "name": "from",
          "type": "address"
        },
        {
          "internalType": "address",
          "name": "to",
          "type": "address"
        },
        {
          "internalType": "uint256",
          "name": "tokenId",
          "type": "uint256"
        },
        {
          "internalType": "bytes",
          "name": "data",
          "type": "bytes"
        }
      ],
      "name": "safeTransferFrom",
      "outputs": [],
      "stateMutability": "nonpayable",
      "type": "function"
    },
    {
      "inputs": [
        {
          "internalType": "address",
          "name": "operator",
          "type": "address"
        },
        {
          "internalType": "bool",
          "name": "approved",
          "type": "bool"
        }
      ],
      "name": "setApprovalForAll",
      "outputs": [],
      "stateMutability": "nonpayable",
      "type": "function"
    },
    {
      "inputs": [
        {
          "internalType": "bytes4",
          "name": "interfaceId",
          "type": "bytes4"
        }
      ],
      "name": "supportsInterface",
      "outputs": [
        {
          "internalType": "bool",
          "name": "",
          "type": "bool"
        }
      ],
      "stateMutability": "view",
      "type": "function"
    },
    {
      "inputs": [],
      "name": "symbol",
      "outputs": [
        {
          "internalType": "string",
          "name": "",
          "type": "string"
        }
      ],
      "stateMutability": "view",
      "type": "function"
    },
    {
      "inputs": [],
      "name": "tokenCount",
      "outputs": [
        {
          "internalType": "uint256",
          "name": "",
          "type": "uint256"
        }
      ],
      "stateMutability": "view",
      "type": "function"
    },
    {
      "inputs": [
        {
          "internalType": "uint256",
          "name": "tokenId",
          "type": "uint256"
        }
      ],
      "name": "tokenURI",
      "outputs": [
        {
          "internalType": "string",
          "name": "",
          "type": "string"
        }
      ],
      "stateMutability": "view",
      "type": "function"
    },
    {
      "inputs": [
        {
          "internalType": "address",
          "name": "from",
          "type": "address"
        },
        {
          "internalType": "address",
          "name": "to",
          "type": "address"
        },
        {
          "internalType": "uint256",
          "name": "tokenId",
          "type": "uint256"
        }
      ],
      "name": "transferFrom",
      "outputs": [],
      "stateMutability": "nonpayable",
      "type": "function"
    }
  ]
}